:020000040000FA
:100000000C9441050C9469050C9469050C946905E0
:100010000C9469050C9469050C9469050C946905A8
:100020000C9469050C9469050C9469050C94690598
:100030000C9469050C9469050C9469050C94690588
:100040000C9440170C9469050C940E170C94E81648
:100050000C9469050C9469050C9469050C94690568
:100060000C948A170C9469052200FF2100000000FF
:10007000003E5B4F5B3E3E6B4F6B3E1C3E7C3E1C2E
:10008000183C7E3C181C577D571C1C5E7F5E1C0074
:10009000183C1800FFE7C3E7FF0018241800FFE72B
:1000A000DBE7FF30483A060E2629792926407F05EE
:1000B0000507407F05253F5A3CE73C5A7F3E1C1C04
:1000C00008081C1C3E7F14227F22145F5F005F5FC4
:1000D00006097F017F006689956A606060606094B0
:1000E000A2FFA29408047E040810207E20100808B5
:1000F0002A1C08081C2A08081E101010100C1E0CC0
:100100001E0C30383E3830060E3E0E060000000051
:100110000000005F00000007000700147F147F1438
:10012000242A7F2A1223130864623649562050007D
:1001300008070300001C2241000041221C002A1C69
:100140007F1C2A08083E0808008070300008080854
:100150000808000060600020100804023E51494574
:100160003E00427F400072494949462141494D3392
:100170001814127F1027454545393C4A49493141F9
:10018000211109073649494936464949291E0000C7
:10019000140000004034000000081422411414141C
:1001A0001414004122140802015909063E415D5908
:1001B0004E7C1211127C7F494949363E4141412211
:1001C0007F4141413E7F494949417F090909013E3B
:1001D000414151737F0808087F00417F4100204062
:1001E000413F017F081422417F404040407F021C74
:1001F000027F7F0408107F3E4141413E7F0909098B
:10020000063E4151215E7F09192946264949493256
:1002100003017F01033F4040403F1F2040201F3F1C
:100220004038403F631408146303047804036159A1
:10023000494D43007F4141410204081020004141E3
:10024000417F04020102044040404040000307088F
:100250000020545478407F2844443838444444288B
:10026000384444287F385454541800087E09021832
:10027000A4A49C787F0804047800447D40002040BA
:10028000403D007F1028440000417F40007C0478FE
:1002900004787C080404783844444438FC18242446
:1002A0001818242418FC7C080404084854545424C6
:1002B00004043F44243C4040207C1C2040201C3C43
:1002C0004030403C44281028444C9090907C44643A
:1002D000544C4400083641000000770000004136CD
:1002E000080002010204023C2623263C1EA1A16153
:1002F000123A4040207A3854545559215555794185
:100300002254547842215554784020545579400C59
:100310001E5272123955555559395454545939553C
:100320005454580000457C410002457D420001457F
:100330007C407D1211127DF0282528F07C54554513
:10034000002054547C547C0A097F4932494949327F
:100350003A4444443A324A4848303A4141217A3A90
:1003600042402078009DA0A07D3D4242423D3D405C
:1003700040403D3C24FF2424487E4943662B2FFC0B
:100380002F2BFF0929F620C0887E090320545479B9
:10039000410000447D413048484A32384040227A8A
:1003A000007A0A0A727D0D19317D2629292F282607
:1003B0002929292630484D4020380808080808080F
:1003C0000808382F10C8ACBA2F102834FA00007B68
:1003D000000008142A142222142A1408550055007B
:1003E00055AA55AA55AAFF55FF55FF000000FF006A
:1003F000101010FF00141414FF001010FF00FF1065
:1004000010F010F0141414FC001414F700FF000096
:10041000FF00FF1414F404FC141417101F10101F15
:10042000101F1414141F00101010F0000000001F03
:10043000101010101F10101010F010000000FF100E
:100440001010101010101010FF10000000FF14000A
:1004500000FF00FF00001F10170000FC04F414143C
:100460001710171414F404F40000FF00F714141408
:1004700014141414F700F7141414171410101F1088
:100480001F141414F4141010F010F000001F101FAB
:100490000000001F14000000FC140000F010F01019
:1004A00010FF10FF141414FF141010101F00000090
:1004B00000F010FFFFFFFFFFF0F0F0F0F0FFFFFF94
:1004C0000000000000FFFF0F0F0F0F0F38444438EB
:1004D00044FC4A4A4A347E02020606027E027E023A
:1004E00063554941633844443C04407E201E200645
:1004F000027E020299A5E7A5991C2A492A1C4C7282
:1005000001724C304A4D4D303048784830BC625A08
:10051000463D3E494949007E0101017E2A2A2A2A98
:100520002A44445F444440514A444040444A514074
:100530000000FF0103E080FF000008086B6B083635
:1005400012362436060F090F0600001818000000A6
:100550001010003040FF0101001F01011E00191D95
:100560001712003C3C3C3C00000000000001030767
:100570000F1F3F7F0080C0E0F0F8FCFE0000000885
:10058000000201000003040700000000000000005A
:10059000DB40A4A62EAF2000A1C8D300408DAED56D
:1005A00080A80000600000000000000000000000C3
:1005B000000000E00000000000000000000000005B
:1005C0000001E0000000000000000000000000004A
:1005D00001F0000000000000000000000000000327
:1005E000F00000000000000000000000000007F024
:1005F0000000000000000000000000000007F800FC
:100600000000000000000000000000000FF80000E3
:100610000003C0007E000001E0007F0FF800000032
:1006200003C000FE000001E000FFEFF8000000033F
:10063000C000FE000001E000FFFFF800000003C062
:1006400000F00000000F007FFE7FC0000003C0002C
:10065000F00000000F003FFE7FF83FF1FBCFFCFEF3
:10066000F3BC3DEFE01FFE7FFF7FFBFFDFFEFEFFE1
:10067000BC3DEFE01FC6FFFF7FFBFFDFFEFEFFBCC0
:100680003DEFE00FE3C7FE787BC3DE1EF0FFBC3D0D
:10069000EF0007FF87FC787BC3DE1EF0F83C3DEFE0
:1006A0000001FFFFF0007BC3C01EF0F03C3DEF00F7
:1006B00001F37FE03FFBC3CFFEF0F03C3DEF0003D2
:1006C000E33F807FFBC3DFFEF0F03C3DEF0007E738
:1006D0003C00787BC3DE1EF0F03C3DEF0007FFBE20
:1006E00000787BC3DE1EF0F03C3DEF0007FFFE000C
:1006F000787BC3DE1EF0F03C3DEF000FFFFE007F75
:10070000FBFFDFFEF0F03FFDEFE00FFFFF007FFBA0
:10071000FFDFFEF0F03FFDEFE00FF9FF003E79F95B
:10072000CF9EF0F01F3DE7E01FF1FF00000000004A
:10073000000000000000001F80FF007FFFFFFFFFA0
:10074000FFFFFFFFFFE01C007F007FFFFFFFFEB405
:100750006D888D18E000001F007FFFFFFFFE95AD44
:100760007DB577E000000F007FFFFFFFFEA5AD9D88
:100770008D19E0000006007FFFFFFFFEB5ADEDB56F
:100780007EE000000000000180000000000000008A
:100790000000038000000000000000000007C0000F
:1007A000000000000000000007C000000000000082
:1007B0000000000FC00000000000000000001FE06B
:1007C0000000000000000000001FE000000000002A
:1007D000000000003FE00000000000000000003FBB
:1007E000F00000000000000000007FF000000000AA
:1007F0000000001FF87FF0000000000000003FFE36
:100800007FF0000000000000003FFF7FF0000000CC
:10081000000000001FFFFBE0000000000000000FD0
:10082000FFF9FFC00000000000000FFFF9FFF80013
:10083000000000000007FFF1FFFF000000000000C3
:1008400003FC73FFFF80000000000001FE3FFFFF7C
:1008500080000000000000FF1E0FFF0000000000ED
:1008600000007FFE1FFC000000000000003FFFFFB3
:10087000F8000000000000000FDFFFE000000000B3
:100880000000001F19FFC0000000000000003F3CF6
:10089000FF00000000000000007E7CF80000000067
:1008A000000000007FFE7C0000000000000000FF50
:1008B000FFFC0000000000000000FFFFFE00000041
:1008C0000000000000FFFFFE00000000000000012B
:1008D000FFEFFE0000000000000001FFCFFE00005F
:1008E000000000000003FF07FE0000000000000001
:1008F00003FC07FE0000000000000003F003FE0000
:10090000000000000000018000FE00000000000068
:10091000000000007E000000000000000000003E1B
:10092000000000000000000000000C0000000000BB
:1009300000078000FC000003C0000000078001FCED
:10094000000003C0000000078001FC000003C0009D
:100950000000078001E00000001E00000007800189
:10096000E00000001E007FE3F79FF9FDE7787BDFE2
:10097000C0FFF7FFBFFDFDFF787BDFC0FFF7FFBFC4
:10098000FDFDFF787BDFC0F0F787BC3DE1FF787BA2
:10099000DE00F0F787BC3DE1F0787BDE0000F787F2
:1009A000803DE1E0787BDE007FF7879FFDE1E07826
:1009B0007BDE00FFF787BFFDE1E0787BDE00F0F72C
:1009C00087BC3DE1E0787BDE00F0F787BC3DE1E0ED
:1009D000787BDE00F0F787BC3DE1E0787BDE00FF4E
:1009E000F7FFBFFDE1E07FFBDFC0FFF7FFBFFDE1E9
:1009F000E07FFBDFC07CF3F39F3DE1E03E7BCFC0B7
:100A00000000000000000000000000FFFFFFFFFFEB
:100A1000FFFFFFFFFFC0FFFFFFFFFD68DB111A3183
:100A2000C0FFFFFFFFFD2B5AFB6AEFC0FFFFFFFF78
:100A3000FD4B5B3B1A33C0FFFFFFFFFD6B5BDB6AC7
:100A4000FDC000000000250028002B000000000071
:100A5000240027002A0004040404040404040202FD
:100A6000020202020303030303030102040810202D
:100A70004080010204081020010204081020A91877
:100A80001D1D11241FBECFEFD8E0DEBFCDBF11E08A
:100A9000A0E0B1E0ECEFF7E402C005900D92AC36B7
:100AA000B107D9F723E0ACE6B1E001C01D92A9324D
:100AB000B207E1F715E0C0E4D5E004C02197FE01DC
:100AC0000E94BF1FCF33D107C9F70E941D190C9494
:100AD000F1230C94000090E0FC01E659F54F2491BD
:100AE0008A5A954FFC018491882399F090E0880FF1
:100AF000991FFC01E45BF54FA591B491FC01EE5BFD
:100B0000F54F859194918FB7F894EC91E22BEC938B
:100B10008FBF0895089508950895AF92BF92CF9220
:100B2000DF92EF92FF920F931F93CF93DF936C01AD
:100B30007B018B01040F151FEB015E01AE18BF088E
:100B4000C017D10759F06991D601ED91FC91019040
:100B5000F081E02DC6010995892B79F7C501DF9158
:100B6000CF911F910F91FF90EF90DF90CF90BF90AA
:100B7000AF900895FC01538D448D252F30E0842FD4
:100B800090E0821B930B541710F0CF9608950197B5
:100B90000895FC01918D828D981761F0A28DAE0FA2
:100BA000BF2FB11D5D968C91928D9F5F9F73928F29
:100BB00090E008958FEF9FEF0895FC01918D828D55
:100BC000981731F0828DE80FF11D858D90E0089522
:100BD0008FEF9FEF0895FC01918D228D892F90E07A
:100BE000805C9F4F821B91098F73992708958CE336
:100BF00092E00E94EB0521E0892B09F420E0822F8E
:100C0000089580E090E0892B29F00E94F70581117A
:100C10000C9400000895FC01A48DA80FB92FB11DFC
:100C2000A35ABF4F2C91848D90E001968F73992722
:100C3000848FA689B7892C93A089B1898C91837000
:100C400080648C93938D848D981306C00288F389F9
:100C5000E02D80818F7D80830895EF92FF920F9326
:100C60001F93CF93DF93EC0181E0888F9B8D8C8D58
:100C700098131AC0E889F989808185FF15C09FB74C
:100C8000F894EE89FF896083E889F989808183700F
:100C9000806480839FBF81E090E0DF91CF911F91BE
:100CA0000F91FF90EF900895F62E0B8D10E00F5FDF
:100CB0001F4F0F731127E02E8C8D8E110CC00FB6B5
:100CC00007FCFACFE889F989808185FFF5CFCE014D
:100CD0000E940B06F1CFEB8DEC0FFD2FF11DE35AB7
:100CE000FF4FF0829FB7F8940B8FEA89FB898081D0
:100CF0008062CFCFCF93DF93EC01888D8823B9F04A
:100D0000AA89BB89E889F9898C9185FD03C0808116
:100D100086FD0DC00FB607FCF7CF8C9185FFF2CF93
:100D2000808185FFEDCFCE010E940B06E9CFDF91D8
:100D3000CF91089590E0FC01E458FA4F2491FC0112
:100D4000E659F54F3491FC01EA5AF54FE491EE2350
:100D5000C9F0222339F0233001F1A8F4213019F130
:100D6000223029F1F0E0EE0FFF1FEE5BF54FA59169
:100D7000B4918FB7F894EC91611126C030953E2361
:100D80003C938FBF08952730A9F02830C9F0243054
:100D900049F7809180008F7D03C0809180008F771C
:100DA00080938000DFCF84B58F7784BDDBCF84B59F
:100DB0008F7DFBCF8091B0008F778093B000D2CF32
:100DC0008091B0008F7DF9CF3E2BDACF3FB7F894FA
:100DD00080911D0290911E02A0911F02B0912002ED
:100DE00026B5A89B05C02F3F19F00196A11DB11D86
:100DF0003FBFBA2FA92F982F8827BC01CD01620FC2
:100E0000711D811D911D42E0660F771F881F991F7C
:100E10004A95D1F708958F929F92AF92BF92CF9249
:100E2000DF92EF92FF924B015C010E94E6066B019C
:100E30007C010E94E6066C197D098E099F09683EB7
:100E4000734081059105A8F321E0821A9108A10859
:100E5000B10888EEC80E83E0D81EE11CF11C811495
:100E60009104A104B10429F7FF90EF90DF90CF9097
:100E7000BF90AF909F908F900895EF92FF920F9345
:100E80001F93CF93DF93EC01EC80FD806E157F05FF
:100E90000CF070C057FF04C0240F351F50E040E035
:100EA0008E819F81FA01E20FF31F8E179F071CF4BA
:100EB0009C01241B350B121613060CF05BC0922FFD
:100EC000842F8695869586958E9DD0018F9DB00D39
:100ED00011246A0F7B1FAF8DB8A1A60FB71F4770F3
:100EE00049F188E0841B482F682F70E0FB01EC5823
:100EF000FA4FE491281708F063C0621B71092FEFC5
:100F000030E002C0359527956A95E2F7E22301307B
:100F1000110539F0B0F10230110561F58C91E82727
:100F200002C08C91E82BEC93941720F12C813D8129
:100F3000A20FB31FE92FE41BE83078F0023011054F
:100F400021F58E2F9C9190959C932C813D81A20F31
:100F5000B31F88508830B0F7E770EE2359F0F0E007
:100F6000E459FA4FE49101301105F9F010F1023023
:100F7000110519F1DF91CF911F910F91FF90EF9023
:100F80000895E0958C91E823CECF81E001151105FD
:100F900009F480E081959E2F8C932C813D81A20FD6
:100FA000B31F98509830C0F7D7CF8C91E82BEC93B3
:100FB000E1CFE0958C91E823FACF8C91E827F7CF29
:100FC0000130110509F4ADCFE0F20230110509F44A
:100FD000A5CFAE0DBF1DAECF0F931F93CF93DF9361
:100FE00077FF04C0260F371F70E060E0DC01149625
:100FF000CD91DC91FB01E20FF31FCE17DF071CF44C
:101000009E01261B370B121613064CF5FA0157FDED
:101010003796A3E0F595E795AA95E1F7EC9FD00107
:10102000ED9FB00DFC9FB00D11246A0F7B1FDC01FA
:101030005F96ED91FC91E60FF71F4770552781E011
:1010400090E001C0880F4A95EAF7482F013011055A
:1010500059F0A8F02E0F3F1F02301105E1F0DF918B
:10106000CF911F910F9108952E0F3F1FE217F307A5
:10107000B1F38191DF011197842B8C93F7CF809589
:101080002E0F3F1FE217F30751F39191DF011197E4
:1010900098239C93F7CFE217F30709F38191DF01BF
:1010A000119784278C93F7CF0F931F93FA01DC01DC
:1010B00056964C9156974230E9F04330A1F14130B9
:1010C00061F514964D915C91DA01AE1BBF0BFD01E9
:1010D000E21BF30B77FD0BC0DC0116964D915C9182
:1010E0006417750724F4AB01BF010E94EC071F9140
:1010F0000F91089514964D915C91DA01A61BB70BE0
:10110000BD0161507109DC0116964D915C91DA01C7
:10111000AE1BBF0BFD01E21BF30B77FDE8CFAF0168
:101120000E943D07E4CF16964D915C91DA01A61B13
:10113000B70BBD0161507109CDCF0F931F93FA0119
:10114000DC0156964C9156974230A9F0433091F10C
:10115000413019F514964D915C91DA01AE1BBF0B2D
:10116000FD013197F7FD04C0AB01BF010E943D07AF
:101170001F910F91089514964D915C91DA01A61B71
:10118000B70BBD01DC0116964D915C91DA01AE1BE7
:10119000BF0BFD013197621B730BF7FDE9CFDC013B
:1011A00016964D915C91E417F50714F7AF010E9474
:1011B000EC07DECF16964D915C91DA01A61BB70BBA
:1011C000BD01621B730BCECFFC0177FD64C080852F
:1011D0009185681779070CF05EC057FD5CC0828569
:1011E0009385481759070CF056C086898230B1F0B4
:1011F000833029F1813041F484819581841B950BE2
:10120000AB01BC01615071092130310509F108F4CD
:1012100043C02230310509F463C00895848195816B
:10122000DC01A61BB70BBD01615071098681978156
:10123000DC01A41BB50BAD0141505109E5CF8681FE
:101240009781861B970BBA01AC0141505109DCCF45
:10125000CA0157FD0796A3E095958795AA95E1F7F2
:10126000A481B5818A9F90018B9F300D9A9F300D8C
:101270001124620F731F078CF0A1E02DE60FF71FFA
:101280004770552721E030E001C0220F4A95EAF768
:101290008081822B80830895CA0157FD079633E031
:1012A000959587953A95E1F7A481B5818A9F90013C
:1012B0008B9F300D9A9F300D1124620F731F078C86
:1012C000F0A1E02DE60FF71F4770552781E090E071
:1012D00001C0880F4A95EAF7809590818923DACF7B
:1012E000CA0157FD079623E0959587952A95E1F762
:1012F000A481B5818A9F90018B9F300D9A9F300DFC
:101300001124620F731F078CF0A1E02DE60FF71F69
:101310004770552721E030E001C0220F4A95EAF7D7
:1013200080818227B7CF08958EBD00000DB407FEDF
:10133000FDCF8EB508958CBD9DBD08950895FC0127
:101340006370668B8481958126813781613039F0A5
:10135000633029F09187808733872287089531870A
:1013600020879387828708952F923F924F925F92B2
:101370006F927F928F929F92AF92BF92CF92DF92A5
:10138000EF92FF920F931F93CF93DF93CDB7DEB70A
:101390006A970FB6F894DEBF0FBECDBF9A8F898FC4
:1013A0007A8369834A01D22E18870F833701BC2CB8
:1013B000DC0159962D913C915A972115310509F080
:1013C00015C118968D919C911997681779070CF0A3
:1013D000D7C11A968D919C91481759070CF0D0C12E
:1013E0004C2C512CB6E0CB9E600D711D11247C87D6
:1013F0006B87161617060CF0C3C1EA2DF0E0FA87CA
:10140000E98793E0EE0FFF1F9A95E1F7F88BEF87DE
:10141000CF01840F951F181619060CF0B1C1A98DC4
:10142000BA8D58968C91811104C0BFEABD1508F49D
:10143000D394A98DBA8DED91FC9111970284F38517
:10144000E02DCD010995B5E0DB9EC0011124E981B5
:10145000FA81FC83EB83312C212C9C0124593F4FD2
:10146000388F2F8B4A2D50E05E8B4D8BEF89F88D96
:10147000E20DF31D44919E828D82D12CC12C698195
:101480007A81620D731D7A8B698B842F90E09C8B1F
:101490008B8BE98DFA8DA081B18140FF82C0F1E094
:1014A000BF126FC0AF126DC01C96ED91FC912F81E1
:1014B0003885A4014C0D5D1D69897A89898D9A8DC5
:1014C0000995EB89FC89F595E7954E2F5FEFC51AD5
:1014D000D50A6D817E818D899E89680F791F7E83F3
:1014E0006D8398E0C916D10481F6AFEF2A1A3A0A43
:1014F000EB81FC81E40DF51DFC83EB83F5E02F16F9
:10150000310409F0B3CF2F81388526153705B9F09E
:10151000A98DBA8DED91FC91B1E0BB1257C0AB1211
:1015200055C069817A816B5F7F4F0088F189E02D1A
:10153000830128E030E0A401898D9A8D0995A98D59
:10154000BA8DED91FC9111970688F789E02DCD01B8
:101550006A960FB6F894DEBF0FBECDBFDF91CF9174
:101560001F910F91FF90EF90DF90CF90BF90AF90C1
:101570009F908F907F906F905F904F903F902F90B3
:1015800009941E96ED91FC91EF80F88409851A85E7
:1015900092014D815E816B817C81898D9A8D099547
:1015A00090CF2F8138852615370509F48ACF31E091
:1015B000B31207C0A31205C01C96ED91FC919301D4
:1015C00078CF1E96ED91FC917301E0CF6B857C8501
:1015D000641975090684F785E02D73010F85188954
:1015E0009201A401898D9A8D0995A9CFF9013496AC
:1015F0009491329745915491D91AB7E0DB9E400DF2
:10160000511D1124F901259134913C8B2B8BFA014A
:1016100025903490FA013296749031963491398B3A
:10162000329664903196449041E04C1518F04A157A
:1016300008F07FC0662D062C000C770B7C836B8333
:10164000842D042C000C990B9E838D83A98DBA8D5B
:10165000ED91FC9111970284F385E02DCD01099560
:10166000512CD12CC12CEA2DF0E0FA87E9872B2DE3
:1016700030E03C872B87A401440D511D47FC5A954F
:10168000588F4F8B69817A81660D711D67FC7A9541
:101690007E876D877989C71608F051CF2C2D30E0F1
:1016A0004D815E81420F531FA985BA854A9FC001B3
:1016B0004B9F900D5A9F900D1124FC01E80DF91DD0
:1016C000F88BEF87852D612C4F89588D420F531F62
:1016D0005E8B4D8B671408F050C044244394480E31
:1016E000877041F4C1010196EB89FC89E20DF31D7D
:1016F000D4901C01D7FE19C0A98DBA8DED91FC9133
:10170000662D70E0B1E0BB1219C0AB1217C02D8579
:101710003E85620F731F0484F585E02D2F81388587
:101720004D895E89898D9A8D0995DD0C6394842D90
:10173000D1CF1E821D821C821B8288CF4B815C818F
:10174000640F751FAB85BC856A9FC0016B9F900DB0
:101750007A9F900D112469817A81680F791F068420
:10176000F785E02DEF80F88409851A859D014F8566
:101770005889898D9A8D0995D8CF570CC3948ACFF3
:101780006A960FB6F894DEBF0FBECDBFDF91CF9142
:101790001F910F91FF90EF90DF90CF90BF90AF908F
:1017A0009F908F907F906F905F904F903F902F9081
:1017B00008958F929F92AF92CF92EF92FF920F93E4
:1017C0001F93CF93DF93EC01262F898D9A8D00977D
:1017D00009F051C06A30D1F41D861C868D8948E01D
:1017E000849F900111248E859F85820F931F9F8770
:1017F0008E8781E090E0DF91CF911F910F91FF9054
:10180000EF90CF90AF909F908F9008956D3089F3B7
:10181000CC88AD888F898823C1F08C859D8536E082
:10182000C39E800D911D112448855985481759077D
:1018300064F44E855F851D861C8638E0A39EC0013A
:101840001124840F951F9F878E87EA88FB8808895B
:1018500019894E855F856C857D85CE010E94B4090E
:101860002C898C859D8546E0249F800D911D112437
:101870009D878C87BECF6A3069F41D861C86FC016B
:101880003896E4912D898E859F85E29F800D911D6C
:101890001124ADCF6D3009F4ACCFFC0134963491F6
:1018A000631708F4A6CF3296E491E61708F4A1CFA7
:1018B000FC01329685909490462F431B342F47E0CD
:1018C000349F800C911C1124F4013296349131968E
:1018D000E4913323A9F1EE2399F1CC88F4013596F4
:1018E000E491AD884F89442301F10E2E000CFF0BCB
:1018F000E30FF11DCE9EA001CF9E500D11246C85EB
:101900007D85460F571F68857985641775076CF4C8
:101910004E855F851D861C86FC013896E491AE9E3F
:10192000400D511D11245F874E87EA88FB88088986
:1019300019894E855F856C857D85CE010E94B4092D
:10194000F4013496E4912C898C859D85E29F800D6D
:10195000911D11248DCF6F927F928F929F92AF92A3
:10196000BF92CF92DF92EF92FF920F931F93CF938C
:10197000DF93EC016B015A0139014801E881F981DB
:101980000284F385E02D0995E881F9810288F389C5
:10199000E02D87019301A501B601CE010995A501AE
:1019A000480D591D41505109E881F9810288F38998
:1019B000E02D9301B601CE010995E881F9810088F7
:1019C000F189E02D9401A501B601CE010995C60C5F
:1019D000D71CB60161507109E881F9810088F1894D
:1019E000E02D9401A501CE010995E881F9810688D1
:1019F000F789E02DCE01DF91CF911F910F91FF90DC
:101A0000EF90DF90CF90BF90AF909F908F907F909E
:101A10006F9009946F927F928F929F92AF92BF9234
:101A2000CF92DF92EF92FF920F931F93CF93DF93AA
:101A30005C01EB016A01490138018701DC01ED918C
:101A4000FC916217730719F5641675062CF0962D34
:101A5000872D3A01C92ED82E9601261937092F5FF6
:101A60003F4F048CF58DE02DA301BE01C501099502
:101A7000DF91CF911F910F91FF90EF90DF90CF906A
:101A8000BF90AF909F908F907F906F900895461574
:101A9000570591F42617370724F0892D4B01C22FE3
:101AA000D82F9E01281939092F5F3F4F068CF78DDB
:101AB000E02DA601B401DACF0284F385E02D09956B
:101AC000D501ED91FC910488F589E02D8301940105
:101AD000A601BE01C5010995D501ED91FC910688CD
:101AE000F789E02DC501DF91CF911F910F91FF90F4
:101AF000EF90DF90CF90BF90AF909F908F907F90AE
:101B00006F900994EF92FF920F931F93DC011A9646
:101B10000D911C911B9718962D913C911997ED9161
:101B2000FC9100A0F1A1E02D7B0150E040E070E0CD
:101B300060E009951F910F91FF90EF9008954F92EB
:101B40005F926F927F928F929F92AF92BF92CF924D
:101B5000DF92EF92FF920F931F93CF93DF936C016D
:101B60002B015A0139014801DC01ED91FC910284FD
:101B7000F385E02D0995E201640C751CD601ED9109
:101B8000FC91C615D7055CF40088F189E02D87012A
:101B90009401A501BE01C60109952196EFCF0688E3
:101BA000F789E02DC601DF91CF911F910F91FF9032
:101BB000EF90DF90CF90BF90AF909F908F907F90ED
:101BC0006F905F904F9009948F929F92AF92BF92C7
:101BD000CF92DF92EF92FF920F931F93CF93DF93F9
:101BE000EC015B014A016901E881F9810284F38516
:101BF000E02D099595012C0D3D1D21503109E881FD
:101C0000F9810488F589E02D78018401A401B501EA
:101C1000CE010995E881F9810688F789E02DCE018A
:101C2000DF91CF911F910F91FF90EF90DF90CF90B8
:101C3000BF90AF909F908F9009948F929F92AF9298
:101C4000BF92CF92DF92EF92FF920F931F93CF93A9
:101C5000DF93EC015B014A0169017801E881F981B8
:101C60000284F385E02D0995C80CD91C860101502A
:101C70001109E881F9810488F589E02D9501A40115
:101C8000B501CE010995E881F9810688F789E02D33
:101C9000CE01DF91CF911F910F91FF90EF90DF90D8
:101CA000CF90BF90AF909F908F900994EF92FF924A
:101CB0000F931F93DC01ED91FC9100A0F1A1E02DA9
:101CC00009951F910F91FF90EF9008950F931F9327
:101CD000DC01ED91FC91068CF78DE02D09951F91AB
:101CE0000F9108950F931F93DC01ED91FC91048CEB
:101CF000F58DE02D09951F910F910895DC01ED916F
:101D0000FC910084F185E02D09943F924F925F92FF
:101D10006F927F928F929F92AF92BF92CF92DF92FB
:101D2000EF92FF920F931F93CF93DF935C017B01A0
:101D30004A016901390187E0680E711C93E07594CE
:101D400067949A95E1F72B01400E511E10E000E0D8
:101D5000312CD0E0C0E0CE0187709927330C892B5D
:101D600059F4FE0183E0F595E7958A95E1F7E00FD8
:101D7000F11FE80DF91D349037FE0AC021E030E074
:101D8000A701B5016C0F7D1F85EE92E00E947E0ECB
:101D90002196CC16DD06F9F68FEFE81AF80A060D43
:101DA000171DE414F504A9F6DF91CF911F910F914F
:101DB000FF90EF90DF90CF90BF90AF909F908F906B
:101DC0007F906F905F904F903F9008952F923F9239
:101DD0004F925F926F927F928F929F92AF92BF923B
:101DE000CF92DF92EF92FF920F931F93CF93DF93E7
:101DF00000D000D000D0CDB7DEB73C016A013E83F1
:101E00002D83FC82EB825801A41AB50AB7FE03C0E9
:101E1000B194A194B1088D809E80861A970A97FE8E
:101E200003C09194819491088A149B045CF0902FD4
:101E3000812F0D811E819D838E839C2D8D2D6B01A5
:101E4000692F782F0C151D055CF09D818E817E8396
:101E50006D83692F782F902F812F8601C92ED82E60
:101E60001601201A310A2B012D813E81421A530A94
:101E700057FE03C0519441945108710137FE03C0CD
:101E80003FEFE31AF30AF594E7948D819E8186175C
:101E900097075CF5A1E0B0E0BA83A983C016D1062C
:101EA0004CF1D301ED91FC910484F585E02D2B815B
:101EB0003C81A8016D817E818A149B041CF04D81B8
:101EC0005E81B801C3010995E418F508F7FE0AC060
:101ED0002D813E8189819A81280F391F3E832D8370
:101EE000E20CF31C0F5F1F4FD9CF2FEF3FEF3A8368
:101EF0002983D4CF26960FB6F894DEBF0FBECDBF90
:101F0000DF91CF911F910F91FF90EF90DF90CF90D5
:101F1000BF90AF909F908F907F906F905F904F9009
:101F20003F902F90089508952091D201260F3327D6
:101F3000331F21323105ECF42091F601FC0190E0D1
:101F400080E0243069F082E00895A091D2012191CF
:101F5000AC014E545E4FA40FB52FB11D2C930196CA
:101F6000861798F38091D201680F6093D20180E0C8
:101F7000089581E008951092F60181E08093F801C0
:101F80001092F70161E082E10E949A0661E083E12C
:101F90000E949A06E9EBF0E080818E7F8083808149
:101FA0008D7F808388E48093B80085E48093BC00B3
:101FB0000895CF93DF9391E09093B1018823B9F016
:101FC000C091B800D091BA008091BC008A7B809308
:101FD000BC0060E082E10E949A0660E083E10E941A
:101FE0009A060E94BB0FD093BA00C093B800DF914D
:101FF000CF910895E091270280912602E81730F4EE
:10200000F0E0E457FE4F808190E008958FEF9FEF5E
:10201000089590912702809126022FEF3FEF9817A5
:1020200048F4E92FF0E0E457FE4F208130E09F5F55
:1020300090932702C901089580912602909127026A
:10204000891B990B0895CF92DF92EF92FF920F9325
:102050001F93CF93DF937C01CB018A0120913B0238
:10206000222389F0EB016B01C40ED51ECC15DD05D2
:1020700069F06991D701ED91FC910190F081E02D1B
:10208000C7010995F3CF642F0E94940FC801DF9117
:10209000CF911F910F91FF90EF90DF90CF90089517
:1020A000CF93DF931F92CDB7DEB7698320913B02B8
:1020B0002223F9F020913802203258F021E030E05C
:1020C000FC013383228390E080E00F90DF91CF9179
:1020D000089580913902E82FF0E0E459FE4F99818C
:1020E00090838F5F809339028093380281E090E083
:1020F000ECCF61E0CE0101960E94940FF7CFCF9212
:10210000DF92EF92FF920F931F93CF93DF93D091C3
:10211000380281E0D13208F09CC0C0913A020E949E
:10212000E6066B017C018091F60181116CC082E0B2
:102130008093F60181E08093F8018FEF8093F501A1
:1021400010921A02D0931902ACE6B1E0E9EFF1E087
:1021500080E0D8138DC010921B0280911B02CC0F1F
:10216000C82BC0931B028091F701813009F084C015
:102170001092F7010E94E6066B017C0180911B0220
:102180008093BB008091AD019091AE01A091AF0111
:10219000B091B001892B8A2B8B2BA1F00E94E6060F
:1021A0000091AD011091AE012091AF013091B001CD
:1021B0006C197D098E099F0906171707280739072B
:1021C00008F442C08091BC0083FDD8CF85EC809399
:1021D000BC000E94E6066B017C018091F601823012
:1021E00009F44CC08091F5018F3F09F469C08091DA
:1021F000F501803209F466C08091F501803309F45D
:1022000063C084E026C08091AD019091AE01A091A1
:10221000AF01B091B001892B8A2B8B2B09F483CFAE
:102220000E94E6060091AD011091AE012091AF0130
:102230003091B0016C197D098E099F0906171707A7
:102240002807390708F06FCF8091AC010E94D90FA1
:1022500085E0109239021092380210923B02DF9111
:10226000CF911F910F91FF90EF90DF90CF90089545
:102270009D9191938F5F6DCF85EEA9CF8091AD0138
:102280009091AE01A091AF01B091B001892B8A2B42
:102290008B2B09F4A2CF0E94E6060091AD011091AC
:1022A000AE012091AF013091B0016C197D098E090A
:1022B0009F09061717072807390708F08ECFC4CFE4
:1022C00080E0C7CF82E0C5CF83E0C3CFEF92FF921B
:1022D0000F931F93CF93DF937C01C62F809102034E
:1022E00090910303009709F459C02091060331E04F
:1022F00030933B0220933A02109239021092380236
:10230000DC01ED91FC910190F081E02D60E00995F8
:102310008701EE24E394F12CD1E0C15080910203B7
:1023200090910303CF3F91F1B0E2EB16F104D8F0A6
:102330000E947F1080910203909103032091060375
:10234000D0933B0220933A02109239021092380245
:10235000DC01ED91FC910190F081E02D60E00995A8
:10236000EE24E394F12C8091020390910303F80191
:102370006491DC01ED91FC910190F081E02D0995D3
:10238000BFEFEB1AFB0A0F5F1F4FC7CFDF91CF9153
:102390001F910F91FF90EF900C947F10E09112032A
:1023A000F091130390818091180380958923808395
:1023B0008701C15008F438C0F801849120910003CE
:1023C00030910103232B29F00E9494090F5F1F4FC6
:1023D000F0CF28E030E040E8E0910E03F0910F03E9
:1023E00090911603582F5423D9F05081952B908348
:1023F000E0911003F0911103908150911703952BF8
:102400009083E0911003F091110350819091170394
:10241000909595239083469521503109E9F6D6CFC2
:10242000508190959523E3CFDF91CF911F910F912C
:10243000FF90EF9008951F93CF93DF93EC018D8D64
:102440009E8D009721F1162F29A131E030933B0298
:1024500020933A021092390210923802DC01ED9179
:10246000FC910190F081E02D60E009958D8D9E8DAD
:10247000DC01ED91FC910190F081E02D612F099537
:102480008D8D9E8DDF91CF911F910C947F10ADA506
:10249000BEA59C918BA9809589238C938B8D9C8D57
:1024A000892B31F0862FDF91CF911F910C949409E5
:1024B00028E030E080E8A9A5BAA599A9462F4823CD
:1024C000C1F04C91942B9C93ABA5BCA59C914AA9BF
:1024D000942B9C93ABA5BCA54C919AA99095942361
:1024E0009C9386952150310931F7DF91CF911F914F
:1024F00008954C9190959423E6CF1F93CF93DF934B
:10250000EC01162F8D8D9E8D892BB1F12DA93EA941
:102510004FA958AD60E074E284EF90E00E947E1F06
:10252000205131094109510956954795379527950D
:102530002093B80066EA111167EACE010E941B12CF
:102540008D8D9E8D892B41F129AD3AAD4BAD5CADA2
:1025500060E074E284EF90E00E947E1F2051310918
:102560004109510956954795379527952093B8000D
:10257000DF91CF911F9108958B8D9C8D892B21F038
:102580008EAD9FAD0E949B09EFA5F8A990818CA903
:10259000809589238083CECFEFA5F8A980819CA95F
:1025A000892B8083E5CF90E080E008958F929F9201
:1025B000AF92BF920F931F93CF93DF93CDB7DEB748
:1025C000A1970FB6F894DEBF0FBECDBF19A242305F
:1025D00008F44AE08E010F5D1F4F842E912CB12C20
:1025E000A12CA50194010E947E1FE62FB901CA010A
:1025F000EA3044F5E05DD801EE938D01232B242BC6
:10260000252B79F790E080E0109769F0FD010190AB
:102610000020E9F73197AF014A1B5B0BBD0185EE46
:1026200092E00E948D05A1960FB6F894DEBF0FBE12
:10263000CDBFDF91CF911F910F91BF90AF909F9031
:102640008F900895E95CD7CF2091EB023091EC0296
:10265000C901079697FD079623E0959587952A95DA
:10266000E1F72091E9023091EA02829FA001839F65
:10267000500D929F500D112470E060E08091040392
:10268000909105030C94FE200E94F92085ED809323
:10269000BC008091AD019091AE01A091AF01B091CD
:1026A000B0010796A11DB11D23E0B695A79597959A
:1026B00087952A95D1F72091BC0024FD03C0109284
:1026C000F60108954091AD015091AE016091AF01C6
:1026D0007091B001452B462B472B69F30097A1055C
:1026E000B10541F025E32A95F1F700000197A10912
:1026F000B109E1CF8091AC010C94D90F2F923F9298
:102700004F925F926F927F928F929F92AF92BF9201
:10271000CF92DF92EF92FF920F931F93CF93DF93AD
:10272000CDB7DEB72C970FB6F894DEBF0FBECDBF86
:102730004B015C010E94241320E030E0A901C50197
:10274000B4010E94991D87FD66C220E030E040E49C
:1027500051E4C501B4010E94F81E18160CF45FC2C2
:1027600020E030E040E451E4C501B4010E949E1D28
:1027700020E030E044E552E40E94FD1E20E030E01D
:1027800040E05FE30E942D1D0E94101E6B01161693
:1027900017060CF07BC08B016633710514F005E35E
:1027A00010E08BE390E03C01601A710AEE24E394A0
:1027B000F12C20E630E0A30166E070E085EE92E0C7
:1027C0000E949F0DCA94CD2809F460C02FB7F894D9
:1027D000609128027091290280912A0290912B0227
:1027E0002FBF28E833E140E050E00E947E1F9B01AC
:1027F000AC01243C69E036074105510508F016C2DA
:10280000AFE5B0E00E94A01F24EC39E040E050E0CA
:102810000E947E1F06E010E08AEF9FEF2C01421A13
:10282000530AF7E02F2E312CC201800F911F97FF22
:1028300003C09195819591098830910514F5F101B6
:10284000E81BF90BCF0163E070E00E946A1F6B0187
:10285000FFEFCF1ADF0AEE24E394F12CA3014E1907
:102860005F094530510538F021E030E0B80185EED0
:1028700092E00E94E4082FEFE21AF20ACE14DF047D
:102880006CF70F5F1F4F0636110571F601E010E07F
:1028900028E330E044E050E064E070E085EE92E050
:1028A0000E94540824E630E04CE350E064E070E01D
:1028B00085EE92E00E949D0828E330E044E050E07D
:1028C00067E670E085EE92E00E94540888E0E6E05A
:1028D000F1E0BE016F5F7F4F6B01DB0101900D9254
:1028E0008A95E1F781E08093F9028093FA0281E012
:1028F00090E09093F8028093F7029093F602809311
:10290000F5027B011E0179E0270E311CD7014D90A5
:102910005D907D01052C000C66087708C301B201AB
:102920000E94481E20E030E040E451E40E949E1DD9
:1029300020E030E040E652E40E94FD1E0E94101E9E
:1029400069877A878B879C874CE350E0461B570B3F
:1029500001E010E024E030E06AE670E085EE92E00D
:102960000E949D0889E390E0E985FA858E1B9F0B04
:102970008933910514F088E390E020E730E030934C
:10298000F2022093F10297FF02C090E080E0909362
:10299000F4028093F3024AE0C301B20177FE0DC056
:1029A0006DE285EE92E00E94D90B66277727CB0176
:1029B00064197509860997094AE00E94D6122E14F7
:1029C0003F0409F0A3CFC501B4010E94101E8B0182
:1029D000072E000C880B990B0E94481E9B01AC012E
:1029E000C501B4010E942C1D20E030E048EC52E407
:1029F0000E94FD1E20E030E040E05FE30E942D1DBC
:102A00000E94101E6436710524F00F5F1F4F70E0A6
:102A100060E080912F0281111EC16EE571E0C60158
:102A20000E940521F60101900020E9F73197EC1989
:102A3000FD098CE08E9F90018F9F300D112483E65D
:102A400090E0821B930B97FD01965C01B594A794CF
:102A50002A5F3F4FB5016F5F7F4FF12CE12C04E1FE
:102A600010E046E150E085EE92E00E949F0D82E08A
:102A70008093F9028093FA0281E090E09093F8024B
:102A80008093F7029093F6028093F50274E0A70E0C
:102A9000B11CB092F202A092F10288E190E0909312
:102AA000F4028093F302F60101900020E9F73197D8
:102AB000AF014C195D09B60185EE92E00E948D05CB
:102AC0008091020390910303892B09F4D9C02091CE
:102AD0001A0330911B0340911C0350911D0360E0C9
:102AE00074E284EF90E00E947E1F20513109410979
:102AF000510956954795379527952093B80064E07E
:102B000088E690E00E9466118091E9029091EA02C5
:102B10008034910509F0CBC060E285EE92E00E941E
:102B20001B126091E902615E85EE92E00E941B1229
:102B30002091EB023091EC02C901079697FD0796B0
:102B400023E0959587952A95E1F72091E902309148
:102B5000EA02829F7001839FF00C929FF00C112477
:102B600000910403109105038091020390910303E7
:102B7000E00EF11E009709F4DDC02091060331E05C
:102B800030933B0220933A0210923902109238029D
:102B9000DC01ED91FC910190F081E02D60E409955C
:102BA000680101E010E0BB24B3948091020390918E
:102BB0000303EC14FD0409F483C000321105D0F0C6
:102BC0000E947F10809102039091030320910603DD
:102BD000B0923B0220933A021092390210923802CE
:102BE000DC01ED91FC910190F081E02D60E409950C
:102BF00001E010E08091020390910303F6016191DE
:102C00006F01DC01ED91FC910190F081E02D0995BF
:102C10000F5F1F4FCACF812C912C5401A1CD812C65
:102C2000912CB0E4AB2EB1E4BB2E9ACD245C39409C
:102C300041095109AFE5B0E00E94A01F24EC39E042
:102C400040E050E00E947E1F8FE590E0DC01A21B77
:102C5000B30B9D01DFCD7F936F931F930F9384E69A
:102C600091E09F938F931F9288E08F93DF92CF9292
:102C70000E940C210FB6F894DEBF0FBECDBFD2CE9E
:102C80008091000390910103892B31F080912303FF
:102C9000909124030E949B09E0911403F091150385
:102CA00090818091190380958923808328CF60E0EB
:102CB00085EE92E00E941B126091E902615034CFD0
:102CC0000E947F108091020390910303892B09F4E5
:102CD00075C020911E0330911F0340912003509135
:102CE000210360E074E284EF90E00E947E1F205197
:102CF00031094109510956954795379527952093F4
:102D0000B8002C960FB6F894DEBF0FBECDBFDF9192
:102D1000CF911F910F91FF90EF90DF90CF90BF90D8
:102D2000AF909F908F907F906F905F904F903F906B
:102D30002F900895E0911203F091130380819091F8
:102D40001803892B8083E016F10609F4BBCFF80144
:102D500081918F012091000330910103232B19F001
:102D60000E949409F0CF28E030E040E8E0910E03A3
:102D7000F0910F0390911603582F5423D9F05081EE
:102D8000952B9083E0911003F09111039081509165
:102D90001703952B9083E0911003F091110350815C
:102DA0009091170390959523908346952150310972
:102DB000E9F6C9CF508190959523E3CFE0911403B4
:102DC000F0911503808190911903892B808399CF0D
:102DD0001F920F920FB60F9211242F933F934F9390
:102DE0005F936F937F938F939F93AF93BF93EF9373
:102DF000FF938CE392E00E940B06FF91EF91BF914D
:102E0000AF919F918F917F916F915F914F913F9182
:102E10002F910F900FBE0F901F9018951F920F9239
:102E20000FB60F9211242F938F939F93EF93FF93DD
:102E3000E0914C02F0914D028081E0915202F091BC
:102E4000530282FD1BC09081809155028F5F8F736A
:102E500020915602821741F0E0915502F0E0E45CC7
:102E6000FD4F958F80935502FF91EF919F918F9128
:102E70002F910F900FBE0F901F9018958081F4CF67
:102E80001F920F920FB60F9211242F933F938F939F
:102E90009F93AF93BF938091280290912902A091B4
:102EA0002A02B0912B0230911C0223E0230F2D3710
:102EB00058F50196A11DB11D20931C028093280294
:102EC00090932902A0932A02B0932B0280911D02B5
:102ED00090911E02A0911F02B09120020196A11DA7
:102EE000B11D80931D0290931E02A0931F02B09308
:102EF0002002BF91AF919F918F913F912F910F90A1
:102F00000FBE0F901F90189526E8230F0296A11D63
:102F1000B11DD2CF1F920F920FB60F9211242F9393
:102F20003F934F935F936F937F938F939F93AF9351
:102F3000BF93EF93FF938091B900887F803609F4A7
:102F40004AC0F0F5883209F4A7C018F5803109F4B9
:102F50009BC0B8F4882309F4F9C0883009F494C000
:102F6000FF91EF91BF91AF919F918F917F916F9161
:102F70005F914F913F912F910F900FBE0F901F9037
:102F80001895883109F488C0803251F78093F50193
:102F900014C0803409F49DC040F48033B9F3883301
:102FA000F9F68093F50185ECB0C0803509F485C051
:102FB000883509F496C0883499F60E944613D0CF1C
:102FC000883909F48CC038F5883729F050F48836F0
:102FD00011F0803729F683E08093F6011092F40116
:102FE00057C0883809F47BC0803919F0803809F05F
:102FF000B7CF8091F401803208F071C0E091F40104
:1030000081E08E0F8093F4018091BB00F0E0EC52E0
:10301000FE4F80833DC0803B39F0E0F4803A09F4F4
:1030200079C0883A09F09CCF84E08093F601109231
:10303000D3011092D201E0912402F091250209956A
:103040008091D20181110FC081E08093D201109252
:10305000B20109C0803C09F4A6CF883C09F4A3CF93
:10306000883B09F07DCFE091D30181E08E0F809302
:10307000D301F0E0EE54FE4F80818093BB0090912D
:10308000D3018091D20129C080911B028093BB00A3
:1030900085EC8093BC0064CF90911A028091190254
:1030A000981758F5E0911A0281E08E0F80931A026A
:1030B000F0E0E750FE4F8081E9CFE0911A0281E015
:1030C0008E0F80931A028091BB00F0E0E750FE4F14
:1030D000808390911A02809119029817C8F285E8AE
:1030E000D8CFE0911A0281E08E0F80931A0280916E
:1030F000BB00F0E0E750FE4F80838091F801811122
:103100005CCF81E08093F70184EA8093BC00109249
:10311000F60126CF85EC8093BC001092F6018091D9
:10312000F401803230F4E091F401F0E0EC52FE4F13
:1031300010826091F40170E0E0912202F09123028C
:1031400084ED91E009951092F4010ACF1092F501F7
:1031500034CFECE3F2E01382128248EE53E060E0F9
:1031600070E0448355836683778382E191E09183A5
:10317000808385EC90E09587848784EC90E0978746
:10318000868780EC90E0918B808B81EC90E0938B34
:10319000828B82EC90E0958B848B86EC90E0978B11
:1031A000868B118E128E138E148EA9EDB2E01396BB
:1031B0001C921E92129714964D935D936D937C937F
:1031C000179784E291E011969C938E93E5EEF2E0DE
:1031D0001382128220E830E03583248380E490E07B
:1031E000978386833187208793878287168A1586FF
:1031F00014861786168681E0858B848B2FEF3FEF30
:10320000338B228B318B208B878B108E128E118EFD
:1032100086E391E091838083148E138EB68FA58F01
:1032200010A2178E8FEF84A385A386A387A384E0C3
:1032300080A780E586AF17AE0895789484B5826044
:1032400084BD84B5816084BD85B5826085BD85B54A
:10325000816085BD80916E00816080936E001092C8
:103260008100809181008260809381008091810043
:1032700081608093810080918000816080938000D4
:103280008091B10084608093B1008091B000816032
:103290008093B00080917A00846080937A0080915E
:1032A0007A00826080937A0080917A0081608093B6
:1032B0007A0080917A00806880937A001092C10031
:1032C000E0914C02F0914D0282E08083E09148024F
:1032D000F09149021082E0914A02F0914B028FEC8A
:1032E000808310925402E0915002F091510286E0E6
:1032F0008083E0914E02F0914F0280818061808353
:10330000E0914E02F0914F02808188608083E091CD
:103310004E02F0914F02808180688083E0914E02DE
:10332000F0914F0280818F7D808364E670E080E0C1
:1033300090E00E940B078CE392E00E94EB05892B42
:1033400029F08CE392E00E94C905F5CF65E58CE396
:1033500092E00E942D068091040390910503892B31
:1033600011F10E9424132091EB023091EC02809124
:10337000E9029091EA02213231050CF002C1B90153
:103380006052710977FF02C06F5F7F4F7595679537
:103390008357910997FD019600E210E023E730E0A2
:1033A00042EA55E001C12091EB023091EC02C901E3
:1033B000079697FD0796B3E095958795BA95E1F73F
:1033C0002091E9023091EA026C01C29EC001C39EC5
:1033D000900DD29E900D11240E94D41F909305034E
:1033E00080930403892B09F0BCCF0E942413C09062
:1033F0003002D0903102E0903202F090330220E0AF
:1034000030E0A901C701B6010E94991D87FDB5C230
:1034100026E636E646EE5FE3C701B6010E94F81ED7
:1034200018163CF446E6C42EDC2C46EEE42E4FE3A0
:10343000F42E26E535E545ED50E4C701B6010E94BE
:10344000FD1E0E947E13C0E0D0E002E011E033E0F8
:10345000B32E2FB7F8948091280290912902A09161
:103460002A02B0912B022FBF4091340250913502B5
:1034700060913602709137026C017D01C41AD50A41
:10348000E60AF70AB701A601483C51056105710536
:1034900068F08093340290933502A0933602B09383
:1034A000370265E58CE392E00E942D068CE392E002
:1034B0000E94EB05892B09F474C28CE392E00E9410
:1034C000C90590912E02913009F461C208F459C2E5
:1034D000923009F461C2933049F710922E02609144
:1034E0002D0290912C02262F290F3FEF320F8317C8
:1034F00011F0821346C2762F692F90E080E00E947F
:10350000461E6B017C0120E030E044E353E40E945E
:10351000F81E18160CF45AC220E030E048EC52E4D1
:10352000C701B6010E949E1D9B01AC0166E676E6CE
:1035300086EE9FE30E942C1D6B017C0120E030E0B1
:10354000A9010E94991D87FD48C226E636E646EE8F
:103550005FE3C701B6010E94F81E18163CF496E618
:10356000C92EDC2C96EEE92E9FE3F92EC092300294
:10357000D0923102E0923202F092330210932F0285
:1035800095CFB9016054710977FF02C06F5F7F4F1B
:10359000759567958255910997FD019600E410E0B5
:1035A00022E530E042E857E0959587950E94850E28
:1035B00082E0809307038091020390910303892B9B
:1035C00009F493C08DE380930603109227021092B2
:1035D000260210923902109238020E94BB0F8BE82B
:1035E00095E090932502809324028CE895E09093D7
:1035F00023028093220280910D0387FD1DC00E944B
:103600006B0561E080910D030E949A0661E070E015
:1036100080E090E00E940B0760E080910D030E9423
:103620009A066AE070E080E090E00E940B0761E09B
:1036300080910D030E949A068091020390910303EA
:10364000892B09F409C120911A0330911B03409181
:103650001C0350911D0360E074E284EF90E00E942F
:103660007E1F2051310941095109569547953795DB
:1036700027952093B80064E08EE995E00E946611DA
:103680006091EB02615085EE92E00E941B1264E0B3
:103690008AE995E00E9466118091070364E1813018
:1036A00009F460E185EE92E00E941B1264E086E975
:1036B00095E00E9466118FE8809322038091E902D1
:1036C0009091EA028038910509F029C18091EB02BE
:1036D0009091EC028034910509F031C1809107038B
:1036E000813009F4D0C08FECCFC080910B030E94D1
:1036F0006B0580910C030E946B0580910B03082ED3
:10370000000C990BFC01EA5AF54FE491F0E0EE0F42
:10371000FF1FEE5BF54F25913491309313032093F7
:103720001203FC01E659F54FE491E09318038091F0
:103730000C03082E000C990BFC01EA5AF54FE4919A
:10374000F0E0EE0FFF1FEE5BF54FA591B491B09343
:103750001503A0931403FC01E659F54FE491E0939F
:1037600019038C91E82BEC93809100039091010355
:10377000892B89F1CFB7F89480912102811124C05F
:10378000E0E6FAE08491E4E7FAE09491E82FF0E0D3
:10379000EE0FFF1FE45BF54FA591B491EC91E92387
:1037A00021F461E08AE00E949A068AE00E946B059B
:1037B0008CB580618CBD8CB580648CBD8DE00E9421
:1037C0006B058BE00E946B05809121028F5F8093D7
:1037D0002102CFBF10CF809109030E946B05809119
:1037E0000A030E946B0580910903082E000C990BB7
:1037F000FC01EA5AF54FE491F0E0EE0FFF1FEE5B9B
:10380000F54F2591349130930F0320930E03FC0163
:10381000E659F54FE491E093160380910A03082ED0
:10382000000C990BFC01EA5AF54FE491F0E0EE0F21
:10383000FF1FEE5BF54FA591B491B0931103A093D8
:103840001003FC01E659F54FE491E09317038C91C6
:10385000E095E823EC93CFCE809100039091010393
:10386000892B31F080912303909124030E949B09BE
:10387000E0911403F09115039081809119038095D4
:1038800089238083F8CE8FE980932203C2E16AED19
:1038900085EE92E00E941B126C2F85EE92E00E9452
:1038A0001B1261E885EE92E00E941B1260912203D8
:1038B00085EE92E00E941B1269ED85EE92E00E9477
:1038C0001B128091070361EF813009F462E285EEFB
:1038D00092E00E941B1266E080E995E00E9466116A
:1038E0008091020390910303892BE9F120911E033B
:1038F00030911F03409120035091210360E074E256
:1039000084EF90E00E947E1F205131094109510946
:1039100056954795379527952093B80066CD803604
:10392000910589F48091EB029091EC02409739F473
:1039300080910703813029F08FEA80932203C2E04F
:10394000A6CF80E1FACF80349105C9F78091EB02D0
:103950009091EC02809799F780910703813009F0EC
:10396000C2CE80E191CFE0911403F09115038081E4
:1039700090911903892B808338CDC12CD12C7601ED
:1039800058CD8F3F09F092CD10932E028FCD8093AA
:103990002D0200932E028ACD80932C02B0922E022B
:1039A00085CDC0903002D0903102E0903202F0908C
:1039B000330220E030E0A901C701B6010E94991D41
:1039C00087FF0FC0C12CD12C76011CC0C12CD12C7B
:1039D00024E3E22E23E4F22E9FCDC12CD12C7601DC
:1039E000C5CD26E636E646EE5FE3C701B6010E9486
:1039F000F81E18163CF486E6C82EDC2C86EEE82E5F
:103A00008FE3F82E26E535E545ED50E4C701B60114
:103A10000E94FD1E0E947E1362E370E080E090E051
:103A20000E940B07209709F414CD0E94F705882304
:103A300009F40FCD0E9400000CCD86E391E0909335
:103A4000E6028093E50280910403909105030097BC
:103A500011F00C94702008955058BB27AA270E949B
:103A6000441D0C94BE1E0E94B01E38F00E94B71E6A
:103A700020F039F49F3F19F426F40C94AD1E0EF497
:103A8000E095E7FB0C94A71EE92F0E94CF1E58F388
:103A9000BA17620773078407950720F079F4A6F533
:103AA0000C94F11E0EF4E0950B2EBA2FA02D0B01F5
:103AB000B90190010C01CA01A0011124FF27591B73
:103AC00099F0593F50F4503E68F11A16F040A22F79
:103AD000232F342F4427585FF3CF469537952795EA
:103AE000A795F0405395C9F77EF41F16BA0B620BE9
:103AF000730B840BBAF09150A1F0FF0FBB1F661F30
:103B0000771F881FC2F70EC0BA0F621F731F841F72
:103B100048F4879577956795B795F7959E3F08F098
:103B2000B0CF9395880F08F09927EE0F979587955A
:103B300008950E94831E08F481E008950E94B21D3A
:103B40000C94BE1E0E94B71E58F00E94B01E40F09A
:103B500029F45F3F29F00C94A71E51110C94F21E1A
:103B60000C94AD1E0E94CF1E68F39923B1F3552328
:103B700091F3951B550BBB27AA2762177307840780
:103B800038F09F5F5F4F220F331F441FAA1FA9F316
:103B900035D00E2E3AF0E0E832D091505040E69504
:103BA000001CCAF72BD0FE2F29D0660F771F881F65
:103BB000BB1F261737074807AB07B0E809F0BB0B58
:103BC000802DBF01FF2793585F4F3AF09E3F51056C
:103BD00078F00C94A71E0C94F21E5F3FE4F3983E1D
:103BE000D4F3869577956795B795F7959F5FC9F755
:103BF000880F911D9695879597F90895E1E0660FD6
:103C0000771F881FBB1F621773078407BA0720F04E
:103C1000621B730B840BBA0BEE1F88F7E0950895B7
:103C20000E94171E6894B1110C94F21E08950E9410
:103C3000D71E88F09F5798F0B92F9927B751B0F049
:103C4000E1F0660F771F881F991F1AF0BA95C9F720
:103C500014C0B13091F00E94F11EB1E008950C94AF
:103C6000F11E672F782F8827B85F39F0B93FCCF362
:103C7000869577956795B395D9F73EF4909580959D
:103C8000709561957F4F8F4F9F4F0895E89409C0BD
:103C900097FB3EF490958095709561957F4F8F4F7F
:103CA0009F4F9923A9F0F92F96E9BB279395F69595
:103CB000879577956795B795F111F8CFFAF4BB0F13
:103CC00011F460FF1BC06F5F7F4F8F4F9F4F16C077
:103CD000882311F096E911C0772321F09EE8872F01
:103CE000762F05C0662371F096E8862F70E060E0BD
:103CF0002AF09A95660F771F881FDAF7880F969536
:103D0000879597F90895990F0008550FAA0BE0E8D9
:103D1000FEEF16161706E807F907C0F0121613068D
:103D2000E407F50798F0621B730B840B950B39F4CD
:103D30000A2661F0232B242B252B21F408950A2633
:103D400009F4A140A6958FEF811D811D089597F973
:103D50009F6780E870E060E008959FEF80EC089531
:103D600000240A941616170618060906089500245A
:103D70000A9412161306140605060895092E0394D4
:103D8000000C11F4882352F0BB0F40F4BF2B11F448
:103D900060FF04C06F5F7F4F8F4F9F4F089557FDA7
:103DA0009058440F551F59F05F3F71F04795880FA9
:103DB00097FB991F61F09F3F79F087950895121640
:103DC00013061406551FF2CF4695F1DF08C01616EC
:103DD00017061806991FF1CF86957105610508949D
:103DE0000895E894BB2766277727CB0197F90895B4
:103DF0000E94831E08F48FEF08950E94101F0C94F8
:103E0000BE1E0E94B01E38F00E94B71E20F09523FF
:103E100011F00C94A71E0C94AD1E11240C94F21EEC
:103E20000E94CF1E70F3959FC1F3950F50E0551F70
:103E3000629FF001729FBB27F00DB11D639FAA27FF
:103E4000F00DB11DAA1F649F6627B00DA11D661F4E
:103E5000829F2227B00DA11D621F739FB00DA11D6F
:103E6000621F839FA00D611D221F749F3327A00D29
:103E7000611D231F849F600D211D822F762F6A2FC5
:103E800011249F5750409AF0F1F088234AF0EE0F2A
:103E9000FF1FBB1F661F771F881F91505040A9F757
:103EA0009E3F510580F00C94A71E0C94F21E5F3FBC
:103EB000E4F3983ED4F3869577956795B795F79593
:103EC000E7959F5FC1F7FE2B880F911D969587950B
:103ED00097F9089597FB072E16F4009407D077FD05
:103EE00009D00E94AB1F07FC05D03EF49095819548
:103EF0009F4F0895709561957F4F0895A1E21A2E06
:103F0000AA1BBB1BFD010DC0AA1FBB1FEE1FFF1F7D
:103F1000A217B307E407F50720F0A21BB30BE40BCD
:103F2000F50B661F771F881F991F1A9469F7609514
:103F30007095809590959B01AC01BD01CF010895CE
:103F40000E94C51FA59F900DB49F900DA49F800D4A
:103F5000911D11240895AA1BBB1B51E107C0AA1F84
:103F6000BB1FA617B70710F0A61BB70B881F991F1A
:103F70005A95A9F780959095BC01CD010895EE0F53
:103F8000FF1F0590F491E02D0994A29FB001B39F0B
:103F9000C001A39F700D811D1124911DB29F700D52
:103FA000811D1124911D08950F931F93CF93DF93CB
:103FB0008230910510F482E090E0E0912703F091C7
:103FC000280330E020E0B0E0A0E0309799F421151C
:103FD000310509F44AC0281B390B24303105D8F5C6
:103FE0008A819B816115710589F1FB01938382832D
:103FF000FE0111C040815181028113814817590788
:10400000E0F04817590799F4109761F012960C9355
:10401000129713961C933296CF01DF91CF911F9187
:104020000F9108950093270310932803F4CF2115CF
:10403000310551F04217530738F0A901DB019A010D
:10404000BD01DF01F801C1CFEF01F9CF9093280343
:1040500080932703CDCFFE01E20FF31F819391934D
:104060002250310939832883D7CF209125033091FD
:104070002603232B41F42091020130910301309358
:104080002603209325032091000130910101211581
:10409000310541F42DB73EB740910401509105011F
:1040A000241B350BE0912503F0912603E217F3075B
:1040B000A0F42E1B3F0B2817390778F0AC014E5F98
:1040C0005F4F2417350748F04E0F5F1F50932603AC
:1040D00040932503819391939FCFF0E0E0E09CCF44
:1040E000CF93DF930097E9F0FC013297138212829D
:1040F000A0912703B0912803ED0130E020E0109754
:10410000A1F420813181820F931F209125033091EA
:1041100026032817390709F061C0F0932603E093BE
:104120002503DF91CF910895EA01CE17DF07E8F567
:104130004A815B819E0141155105B1F7E901FB837D
:10414000EA8349915991C40FD51FEC17FD0761F41B
:10415000808191810296840F951FE901998388835C
:10416000828193819B838A83F0E0E0E012968D91B7
:104170009C9113970097B9F52D913C911197CD0122
:104180000296820F931F2091250330912603281752
:10419000390739F6309751F510922803109227030A
:1041A000B0932603A0932503BCCFD383C283408161
:1041B0005181840F951FC817D90761F44E5F5F4F77
:1041C00088819981480F591F518340838A819B813F
:1041D000938382832115310509F0B0CFF093280332
:1041E000E09327039ECFFD01DC01C0CF1382128232
:1041F000D7CF81E090E0F8940C94F123DC0101C06A
:104200006D9341505040E0F70895FB01DC010190AF
:104210000D920020E1F70895AEE0B0E0E2E1F1E2B6
:104220000C94C8230D891E898F89988D26E02C83D4
:104230001A83098397FF02C080E090E801979E836C
:104240008D83AE01455E5F4F698D7A8DCE010196FB
:104250000E943C214D815E8157FD0AC02F81388527
:10426000421753070CF49A01020F131FF801108232
:104270002E96E4E00C94E423ABE0B0E0E2E4F1E25B
:104280000C94BA237C013B018A01FC01178216823F
:10429000838181FFC8C1CE0101965C01F701938142
:1042A000F30193FD859193FF81913F01882309F4E8
:1042B00053C1853239F493FD859193FF81913F017C
:1042C000853229F4B70190E00E942C23E7CF912C8E
:1042D000212C312CFFE1F31538F08B3211F190F4E1
:1042E000803209F1833229F137FC3CC020ED280FE0
:1042F0002A3050F536FE20C08AE0989E200D112409
:10430000922E06C08D3291F0803371F7689430F8A8
:10431000F30193FD859193FF81913F018111DACFE4
:1043200021C0689431F8689432F8F2CF689433F879
:10433000EFCF689434F8ECCFEAE02E9E200D1124E4
:10434000222E689435F8E4CF8E3229F436FC04C16D
:10435000689436F8DDCF8C3619F4689437F8D8CFE6
:104360008836B1F2982F9F7D95549330E0F08336D4
:10437000A1F18337C1F1833509F063C02801F2E070
:104380004F0E511CF801C080D180692D70E036FCC1
:1043900002C06FEF7FEFC6010E9416234C016894A4
:1043A00037F882010AC00C5F1F4FFFE3F9838824AE
:1043B0008394912C6501E89437F833FE2DC0522C7C
:1043C0008114910471F5552009F468CFB70180E29A
:1043D00090E00E942C235A94F6CFF80180818983C3
:1043E0000E5F1F4FE4CF2801F2E04F0E511CF80181
:1043F000C080D180692D70E036FC02C06FEF7FEF86
:10440000C6010E9421234C018201D5CFB70180E271
:1044100090E00E942C232A942814190409F0B0F784
:10442000CECFF60137FC859137FE81916F01B70140
:1044300090E00E942C2351105A94F1E08F1A9108B9
:10444000BFCF843619F0893609F077C0F80137FEFE
:104450006BC060817181828193810C5F1F4FF32D4E
:10446000FF763F2E97FF09C09095809570956195D6
:104470007F4F8F4F9F4F689437F82AE030E0A501B7
:104480000E945C23C82ECA188C2C432C36FE0CC00C
:10449000E89440F8C91440F434FE05C032FC03C06F
:1044A000F32DFE7E4F2E892C44FE95C0FE01EC0DAF
:1044B000F11D8081803309F087C0242D297E422E92
:1044C000842D8870582E43FC95C040FE8FC09C2CD4
:1044D000821418F42C0C922C981844FE91C0B70149
:1044E00080E390E00E942C2342FE09C088E790E020
:1044F00041FE02C088E590E0B7010E942C23C91458
:1045000008F48AC0CA94D12C9FEFC91AD90ACA0CE0
:10451000DB1CF60182916F01B70190E00E942C2311
:10452000AC14BD04B1F74FCF60817181072E000C30
:10453000880B990B0E5F1F4F92CFD32CE894D4F8C1
:104540002AE030E0853739F1232D297FD22E8F36AE
:1045500001F148F48835A9F0F701868197812B96FF
:10456000E2E10C94D623803749F08837A9F7D4FECE
:1045700002C06894D2F820E130E00DC06894D4F80D
:10458000F6CF34FE03C0822F8660D82E20E132E0C1
:1045900002C028E030E0F801D7FE0FC060817181D1
:1045A000828193810C5F1F4FA5010E945C23C82E5E
:1045B000CA183D2CE89437F867CF6081718190E08C
:1045C00080E00E5F1F4FF0CF42FC02C0839478CF93
:1045D0008394839475CF842D867809F471CFF6CFB8
:1045E000B70180E290E00E942C2383948214C0F3F0
:1045F000512C73CF522C5818821408F46ECFF8CF78
:10460000842D867809F47BCF8BE241FE80E247FC63
:104610008DE2B70190E071CFB70180E390E00E9496
:104620002C239A946CCF8FEF9FEF99CFFC010590CC
:10463000615070400110D8F7809590958E0F9F1FA4
:104640000895FC016150704001900110D8F78095E9
:1046500090958E0F9F1F08950F931F93CF93DF9315
:10466000182F092FEB018B8181FD09C01FEF0FEF80
:10467000812F902FDF91CF911F910F91089582FF8D
:1046800014C02E813F818C819D81281739073CF40D
:10469000E881F981CF0101969983888310838E8107
:1046A0009F8101969F838E83E3CFE885F985812FD3
:1046B0000995892BA1F3DACFFA01AA27283051F105
:1046C000203181F1E8946F936E7F6E5F7F4F8F4F43
:1046D0009F4FAF4FB1E03ED0B4E03CD0670F781FA2
:1046E000891F9A1FA11D680F791F8A1F911DA11D87
:1046F0006A0F711D811D911DA11D20D009F46894C0
:104700003F912AE0269F11243019305D3193DEF667
:10471000CF010895462F4770405D4193B3E00FD01D
:10472000C9F7F6CF462F4F70405D4A3318F0495D08
:1047300031FD4052419302D0A9F7EACFB4E0A695EB
:104740009795879577956795BA95C9F7009761050D
:10475000710508959B01AC010A2E06945795479563
:1047600037952795BA95C9F7620F731F841F951F58
:10477000A01D08952F923F924F925F926F927F9269
:104780008F929F92AF92BF92CF92DF92EF92FF9261
:104790000F931F93CF93DF93CDB7DEB7CA1BDB0B0D
:1047A0000FB6F894DEBF0FBECDBF09942A883988B2
:1047B00048885F846E847D848C849B84AA84B984B9
:1047C000C884DF80EE80FD800C811B81AA81B981C5
:1047D000CE0FD11D0FB6F894DEBF0FBECDBFED01D9
:1047E000089515E0C0E4D5E004C0FE010E94BF1F9B
:1047F0002196C134D107C9F7F894FFCF00002903EF
:1048000080000000040008000C00000000002D06DD
:104810008D05BA057A06EB05C905DD050000000027
:1048200050102310D3128A051C100910FA0F000033
:104830000000D90B8D05D312930FE4088A057E0E74
:10484000560E720E660EE60E8A059F097D125408FA
:104850009D089F0D820D0A0DAB0C2D2D2E2D2D00C8
:0848600025642E2530326400AE
:107E0000112484B714BE81FFF0D085E080938100F7
:107E100082E08093C00088E18093C10086E0809377
:107E2000C20080E18093C4008EE0C9D0259A86E02C
:107E300020E33CEF91E0309385002093840096BBD3
:107E4000B09BFECF1D9AA8958150A9F7CC24DD24C4
:107E500088248394B5E0AB2EA1E19A2EF3E0BF2EE7
:107E6000A2D0813461F49FD0082FAFD0023811F036
:107E7000013811F484E001C083E08DD089C08234E0
:107E800011F484E103C0853419F485E0A6D080C0E4
:107E9000853579F488D0E82EFF2485D0082F10E0AE
:107EA000102F00270E291F29000F111F8ED06801E7
:107EB0006FC0863521F484E090D080E0DECF843638
:107EC00009F040C070D06FD0082F6DD080E0C81688
:107ED00080E7D80618F4F601B7BEE895C0E0D1E017
:107EE00062D089930C17E1F7F0E0CF16F0E7DF06D8
:107EF00018F0F601B7BEE89568D007B600FCFDCFD4
:107F0000A601A0E0B1E02C9130E011968C91119780
:107F100090E0982F8827822B932B1296FA010C0160
:107F200087BEE89511244E5F5F4FF1E0A038BF0790
:107F300051F7F601A7BEE89507B600FCFDCF97BE46
:107F4000E89526C08437B1F42ED02DD0F82E2BD052
:107F50003CD0F601EF2C8F010F5F1F4F84911BD097
:107F6000EA94F801C1F70894C11CD11CFA94CF0C13
:107F7000D11C0EC0853739F428D08EE10CD085E9AC
:107F80000AD08FE07ACF813511F488E018D01DD067
:107F900080E101D065CF982F8091C00085FFFCCF94
:107FA0009093C60008958091C00087FFFCCF809118
:107FB000C00084FD01C0A8958091C6000895E0E648
:107FC000F0E098E1908380830895EDDF803219F02E
:107FD00088E0F5DFFFCF84E1DECF1F93182FE3DFCA
:107FE0001150E9F7F2DF1F91089580E0E8DFEE27F6
:047FF000FF270994CA
:027FFE00040479
:00000001FF
