:100000000C9446050C946E050C946E050C94B31775
:100010000C94B3170C94B3170C946E050C946E05E6
:100020000C946E050C946E050C946E050C946E0584
:100030000C946E050C946E050C946E050C946E0574
:100040000C9469170C946E050C946E050C946E0557
:100050000C946E050C946E050C946E050C946E0554
:100060000C942B180C946E052200FF210000000058
:10007000003E5B4F5B3E3E6B4F6B3E1C3E7C3E1C2E
:10008000183C7E3C181C577D571C1C5E7F5E1C0074
:10009000183C1800FFE7C3E7FF0018241800FFE72B
:1000A000DBE7FF30483A060E2629792926407F05EE
:1000B0000507407F05253F5A3CE73C5A7F3E1C1C04
:1000C00008081C1C3E7F14227F22145F5F005F5FC4
:1000D00006097F017F006689956A606060606094B0
:1000E000A2FFA29408047E040810207E20100808B5
:1000F0002A1C08081C2A08081E101010100C1E0CC0
:100100001E0C30383E3830060E3E0E060000000051
:100110000000005F00000007000700147F147F1438
:10012000242A7F2A1223130864623649562050007D
:1001300008070300001C2241000041221C002A1C69
:100140007F1C2A08083E0808008070300008080854
:100150000808000060600020100804023E51494574
:100160003E00427F400072494949462141494D3392
:100170001814127F1027454545393C4A49493141F9
:10018000211109073649494936464949291E0000C7
:10019000140000004034000000081422411414141C
:1001A0001414004122140802015909063E415D5908
:1001B0004E7C1211127C7F494949363E4141412211
:1001C0007F4141413E7F494949417F090909013E3B
:1001D000414151737F0808087F00417F4100204062
:1001E000413F017F081422417F404040407F021C74
:1001F000027F7F0408107F3E4141413E7F0909098B
:10020000063E4151215E7F09192946264949493256
:1002100003017F01033F4040403F1F2040201F3F1C
:100220004038403F631408146303047804036159A1
:10023000494D43007F4141410204081020004141E3
:10024000417F04020102044040404040000307088F
:100250000020545478407F2844443838444444288B
:10026000384444287F385454541800087E09021832
:10027000A4A49C787F0804047800447D40002040BA
:10028000403D007F1028440000417F40007C0478FE
:1002900004787C080404783844444438FC18242446
:1002A0001818242418FC7C080404084854545424C6
:1002B00004043F44243C4040207C1C2040201C3C43
:1002C0004030403C44281028444C9090907C44643A
:1002D000544C4400083641000000770000004136CD
:1002E000080002010204023C2623263C1EA1A16153
:1002F000123A4040207A3854545559215555794185
:100300002254547842215554784020545579400C59
:100310001E5272123955555559395454545939553C
:100320005454580000457C410002457D420001457F
:100330007C407D1211127DF0282528F07C54554513
:10034000002054547C547C0A097F4932494949327F
:100350003A4444443A324A4848303A4141217A3A90
:1003600042402078009DA0A07D3D4242423D3D405C
:1003700040403D3C24FF2424487E4943662B2FFC0B
:100380002F2BFF0929F620C0887E090320545479B9
:10039000410000447D413048484A32384040227A8A
:1003A000007A0A0A727D0D19317D2629292F282607
:1003B0002929292630484D4020380808080808080F
:1003C0000808382F10C8ACBA2F102834FA00007B68
:1003D000000008142A142222142A1408550055007B
:1003E00055AA55AA55AAFF55FF55FF000000FF006A
:1003F000101010FF00141414FF001010FF00FF1065
:1004000010F010F0141414FC001414F700FF000096
:10041000FF00FF1414F404FC141417101F10101F15
:10042000101F1414141F00101010F0000000001F03
:10043000101010101F10101010F010000000FF100E
:100440001010101010101010FF10000000FF14000A
:1004500000FF00FF00001F10170000FC04F414143C
:100460001710171414F404F40000FF00F714141408
:1004700014141414F700F7141414171410101F1088
:100480001F141414F4141010F010F000001F101FAB
:100490000000001F14000000FC140000F010F01019
:1004A00010FF10FF141414FF141010101F00000090
:1004B00000F010FFFFFFFFFFF0F0F0F0F0FFFFFF94
:1004C0000000000000FFFF0F0F0F0F0F38444438EB
:1004D00044FC4A4A4A347E02020606027E027E023A
:1004E00063554941633844443C04407E201E200645
:1004F000027E020299A5E7A5991C2A492A1C4C7282
:1005000001724C304A4D4D303048784830BC625A08
:10051000463D3E494949007E0101017E2A2A2A2A98
:100520002A44445F444440514A444040444A514074
:100530000000FF0103E080FF000008086B6B083635
:1005400012362436060F090F0600001818000000A6
:100550001010003040FF0101001F01011E00191D95
:100560001712003C3C3C3C00000000000001030767
:100570000F1F3F7F0080C0E0F0F8FCFE0000000885
:10058000000201000003040700000000000000005A
:1005900000000000240027002A00DB40A4A62EAFA4
:1005A0002000A1C8D300408DAED580A80000600017
:1005B00000000000000000000000000000E000005B
:1005C000000000000000000000000001E00000004A
:1005D0000000000000000000000001F0000000002A
:1005E00000000000000000000003F0000000000018
:1005F000000000000000000007F000000000000004
:100600000000000000000007F800000000000000EB
:100610000000000000000FF800000003C0007E0092
:100620000001E0007F0FF800000003C000FE0000A2
:1006300001E000FFEFF800000003C000FE00000131
:10064000E000FFFFF800000003C000F00000000F12
:10065000007FFE7FC0000003C000F00000000F001C
:100660003FFE7FF83FF1FBCFFCFEF3BC3DEFE01F08
:10067000FE7FFF7FFBFFDFFEFEFFBC3DEFE01FC6FE
:10068000FFFF7FFBFFDFFEFEFFBC3DEFE00FE3C798
:10069000FE787BC3DE1EF0FFBC3DEF0007FF87FC4A
:1006A000787BC3DE1EF0F83C3DEF0001FFFFF00059
:1006B0007BC3C01EF0F03C3DEF0001F37FE03FFB49
:1006C000C3CFFEF0F03C3DEF0003E33F807FFBC370
:1006D000DFFEF0F03C3DEF0007E73C00787BC3DE37
:1006E0001EF0F03C3DEF0007FFBE00787BC3DE1E2E
:1006F000F0F03C3DEF0007FFFE00787BC3DE1EF00C
:10070000F03C3DEF000FFFFE007FFBFFDFFEF0F04F
:100710003FFDEFE00FFFFF007FFBFFDFFEF0F03F4C
:10072000FDEFE00FF9FF003E79F9CF9EF0F01F3D9D
:10073000E7E01FF1FF0000000000000000000000E3
:10074000001F80FF007FFFFFFFFFFFFFFFFFFFE0B5
:100750001C007F007FFFFFFFFEB46D888D18E00056
:10076000001F007FFFFFFFFE95AD7DB577E0000025
:100770000F007FFFFFFFFEA5AD9D8D19E000000675
:10078000007FFFFFFFFEB5ADEDB57EE0000000008D
:100790000001800000000000000000000380000055
:1007A0000000000000000007C00000000000000082
:1007B000000007C00000000000000000000FC000A3
:1007C00000000000000000001FE00000000000002A
:1007D0000000001FE00000000000000000003FE0FB
:1007E0000000000000000000003FF00000000000DA
:1007F000000000007FF0000000000000001FF87FF4
:10080000F0000000000000003FFE7FF0000000004C
:100810000000003FFF7FF0000000000000001FFF0D
:10082000FBE0000000000000000FFFF9FFC0000027
:10083000000000000FFFF9FFF800000000000007B3
:10084000FFF1FFFF00000000000003FC73FFFF80CA
:10085000000000000001FE3FFFFF800000000000DC
:1008600000FF1E0FFF000000000000007FFE1FFCC5
:10087000000000000000003FFFFFF8000000000043
:1008800000000FDFFFE0000000000000001F19FF64
:10089000C0000000000000003F3CFF00000000001E
:1008A0000000007E7CF800000000000000007FFED9
:1008B0007C0000000000000000FFFFFC00000000C2
:1008C00000000000FFFFFE0000000000000000FF2D
:1008D000FFFE0000000000000001FFEFFE0000002E
:1008E0000000000001FFCFFE000000000000000338
:1008F000FF07FE0000000000000003FC07FE0000F0
:10090000000000000003F003FE00000000000000F3
:10091000018000FE000000000000000000007E00DA
:100920000000000000000000003E00000000000089
:10093000000000000C000000000000078000FC0028
:100940000003C0000000078001FC000003C000009D
:1009500000078001FC000003C0000000078001E0E8
:100960000000001E000000078001E00000001E00E3
:100970007FE3F79FF9FDE7787BDFC0FFF7FFBFFD5F
:10098000FDFF787BDFC0FFF7FFBFFDFDFF787BDF5A
:10099000C0F0F787BC3DE1FF787BDE00F0F787BC55
:1009A0003DE1F0787BDE0000F787803DE1E0787B79
:1009B000DE007FF7879FFDE1E0787BDE00FFF787B1
:1009C000BFFDE1E0787BDE00F0F787BC3DE1E07839
:1009D0007BDE00F0F787BC3DE1E0787BDE00F0F7DE
:1009E00087BC3DE1E0787BDE00FFF7FFBFFDE1E083
:1009F0007FFBDFC0FFF7FFBFFDE1E07FFBDFC07CD7
:100A0000F3F39F3DE1E03E7BCFC00000000000001B
:100A10000000000000FFFFFFFFFFFFFFFFFFFFC020
:100A2000FFFFFFFFFD68DB111A31C0FFFFFFFFFD75
:100A30002B5AFB6AEFC0FFFFFFFFFD4B5B3B1A33F6
:100A4000C0FFFFFFFFFD6B5BDB6AFDC00000000025
:100A500023002600290000000000250028002B00AC
:100A60000404040404040404020202020202030354
:100A7000030303030102040810204080010204085C
:100A800010200102040810204A19411E11241FBE23
:100A9000CFEFD8E0DEBFCDBF11E0A0E0B1E0ECE8E1
:100AA000FAE402C005900D92AA36B107D9F722E008
:100AB000AAE6B1E001C01D92A43EB207E1F715E03D
:100AC000C5E4D5E004C02197FE010E940E21C43484
:100AD000D107C9F70E94271A0C9439250C940000FD
:100AE000089508950895AF92BF92CF92DF92EF924A
:100AF000FF920F931F93CF93DF936C017B018B01C8
:100B0000040F151FEB015E01AE18BF08C017D10717
:100B100059F06991D601ED91FC910190F081E02DA1
:100B2000C6010995892B79F7C501DF91CF911F91F6
:100B30000F91FF90EF90DF90CF90BF90AF9008950E
:100B400090E0FC01E458FA4F2491FC01EC58F54F79
:100B50003491FC01E05AF54FE491EE23C9F02223D1
:100B600039F0233001F1A8F4213019F1223029F1B4
:100B7000F0E0EE0FFF1FEA5AF54FA591B4918FB741
:100B8000F894EC91611126C030953E233C938FBFC1
:100B900008952730A9F02830C9F0243049F7809112
:100BA00080008F7D03C0809180008F7780938000CC
:100BB000DFCF84B58F7784BDDBCF84B58F7DFBCF4E
:100BC0008091B0008F778093B000D2CF8091B00039
:100BD0008F7DF9CF3E2BDACFCF93DF9390E0FC01EE
:100BE000EC58F54F2491805A954FFC01849188234D
:100BF000D1F090E0880F991FFC01E057FA4FA591C2
:100C0000B491FC01EA5AF54FC591D49161110EC01F
:100C10009FB7F8948C91E22FE0958E238C932881D6
:100C2000E223E8839FBFDF91CF9108958FB7F894B7
:100C3000EC91E22BEC938FBFF6CF3FB7F894809105
:100C40005F0290916002A0916102B091620226B5AC
:100C5000A89B05C02F3F19F00196A11DB11D3FBFF4
:100C6000BA2FA92F982F8827BC01CD01620F711DC3
:100C7000811D911D42E0660F771F881F991F4A95BD
:100C8000D1F708958F929F92AF92BF92CF92DF9249
:100C9000EF92FF924B015C010E941D066B017C01EB
:100CA0000E941D066C197D098E099F09683E7340DC
:100CB00081059105A8F321E0821A9108A108B108E5
:100CC00088EEC80E83E0D81EE11CF11C811491044B
:100CD000A104B10429F7FF90EF90DF90CF90BF906F
:100CE000AF909F908F900895209165023091660299
:100CF0002817390771F49091630280916402981764
:100D000041F0E0916302F0E0E65EFD4F808190E00B
:100D100008958FEF9FEF0895EF92FF920F931F9327
:100D2000CF93DF93DC015C96ED90FC905D97E1142E
:100D3000F10479F481E090E013969C938E931297DE
:100D400090E080E0DF91CF911F910F91FF90EF90A5
:100D500008955196ED91FC91529750968C91509731
:100D6000982F90950FB75E962C915E97122F127068
:100D700021FD6095F8942081112319F1282B2083FF
:100D8000E7012197F1F728E0462F50E0308160FF1E
:100D90001AC0382B3083E7012197F1F7BA01759516
:100DA0006795215089F7112381F080818923808301
:100DB0000FBF5C968D919C910197F1F781E090E0D7
:100DC000C1CF2923DCCF3923E5CF9081892BEFCF09
:100DD00020916502309166022817390771F48091DD
:100DE00064022091630290E0805C9F4F821B910916
:100DF00060E470E00E94B920089590E080E00895DA
:100E0000209165023091660228173907B9F4909154
:100E1000630280916402981789F0E0916302F0E028
:100E2000E65EFD4F80812091630230E02F5F3F4FEF
:100E30002F7333272093630290E008958FEF9FEF85
:100E40000895EF92FF920F931F93CF93DF93EC01DE
:100E5000EC80FD806E157F050CF070C057FF04C05C
:100E6000240F351F50E040E08E819F81FA01E20F90
:100E7000F31F8E179F071CF49C01241B350B1216C1
:100E800013060CF05BC0922F842F8695869586956D
:100E90008E9DD0018F9DB00D11246A0F7B1FAF8DE9
:100EA000B8A1A60FB71F477049F188E0841B482FEF
:100EB000682F70E0FB01EC58FA4FE491281708F016
:100EC00063C0621B71092FEF30E002C03595279592
:100ED0006A95E2F7E2230130110539F0B0F10230F2
:100EE000110561F58C91E82702C08C91E82BEC93F9
:100EF000941720F12C813D81A20FB31FE92FE41B31
:100F0000E83078F00230110521F58E2F9C919095F4
:100F10009C932C813D81A20FB31F88508830B0F77D
:100F2000E770EE2359F0F0E0E459FA4FE491013014
:100F30001105F9F010F10230110519F1DF91CF918F
:100F40001F910F91FF90EF900895E0958C91E82309
:100F5000CECF81E00115110509F480E081959E2F27
:100F60008C932C813D81A20FB31F98509830C0F70D
:100F7000D7CF8C91E82BEC93E1CFE0958C91E823CF
:100F8000FACF8C91E827F7CF0130110509F4ADCFE6
:100F9000E0F20230110509F4A5CFAE0DBF1DAECFB2
:100FA0000F931F93CF93DF9377FF04C0260F371F54
:100FB00070E060E0DC011496CD91DC91FB01E20F62
:100FC000F31FCE17DF071CF49E01261B370B1216EA
:100FD00013064CF5FA0157FD3796A3E0F595E79512
:100FE000AA95E1F7EC9FD001ED9FB00DFC9FB00DED
:100FF00011246A0F7B1FDC015F96ED91FC91E60FD7
:10100000F71F4770552781E090E001C0880F4A958F
:10101000EAF7482F0130110559F0A8F02E0F3F1FB5
:1010200002301105E1F0DF91CF911F910F910895EA
:101030002E0F3F1FE217F307B1F38191DF011197E4
:10104000842B8C93F7CF80952E0F3F1FE217F30769
:1010500051F39191DF01119798239C93F7CFE217F9
:10106000F30709F38191DF01119784278C93F7CF60
:101070000F931F93FA01DC0156964C91569742301C
:10108000E9F04330A1F1413061F514964D915C9146
:10109000DA01AE1BBF0BFD01E21BF30B77FD0BC0AA
:1010A000DC0116964D915C916417750724F4AB0131
:1010B000BF010E94D0071F910F91089514964D9182
:1010C0005C91DA01A61BB70BBD0161507109DC010F
:1010D00016964D915C91DA01AE1BBF0BFD01E21B30
:1010E000F30B77FDE8CFAF010E942107E4CF1696FE
:1010F0004D915C91DA01A61BB70BBD0161507109DE
:10110000CDCF0F931F93FA01DC0156964C91569761
:101110004230A9F0433091F1413019F514964D91C8
:101120005C91DA01AE1BBF0BFD013197F7FD04C0E6
:10113000AB01BF010E9421071F910F9108951496E2
:101140004D915C91DA01A61BB70BBD01DC0116962F
:101150004D915C91DA01AE1BBF0BFD013197621B13
:10116000730BF7FDE9CFDC0116964D915C91E41706
:10117000F50714F7AF010E94D007DECF16964D9108
:101180005C91DA01A61BB70BBD01621B730BCECFBE
:10119000FC0177FD64C080859185681779070CF0A4
:1011A0005EC057FD5CC082859385481759070CF0D7
:1011B00056C086898230B1F0833029F1813041F404
:1011C00084819581841B950BAB01BC016150710931
:1011D0002130310509F108F443C02230310509F40A
:1011E00063C0089584819581DC01A61BB70BBD0106
:1011F0006150710986819781DC01A41BB50BAD019B
:1012000041505109E5CF86819781861B970BBA0122
:10121000AC0141505109DCCFCA0157FD0796A3E04C
:1012200095958795AA95E1F7A481B5818A9F90014C
:101230008B9F300D9A9F300D1124620F731F078C06
:10124000F0A1E02DE60FF71F4770552721E030E0B1
:1012500001C0220F4A95EAF78081822B808308958E
:10126000CA0157FD079633E0959587953A95E1F7C2
:10127000A481B5818A9F90018B9F300D9A9F300D7C
:101280001124620F731F078CF0A1E02DE60FF71FEA
:101290004770552781E090E001C0880F4A95EAF732
:1012A000809590818923DACFCA0157FD079623E004
:1012B000959587952A95E1F7A481B5818A9F90013C
:1012C0008B9F300D9A9F300D1124620F731F078C76
:1012D000F0A1E02DE60FF71F4770552721E030E021
:1012E00001C0220F4A95EAF780818227B7CF08957F
:1012F0008EBD00000DB407FEFDCF8EB508958CBDE8
:101300009DBD08950895FC016370668B848195816D
:1013100026813781613039F0633029F091878087E9
:10132000338722870895318720879387828708959E
:101330002F923F924F925F926F927F928F929F92E5
:10134000AF92BF92CF92DF92EF92FF920F931F93D3
:10135000CF93DF93CDB7DEB76A970FB6F894DEBFB1
:101360000FBECDBF9A8F898F7A8369834A01D22EAF
:1013700018870F833701BC2CDC0159962D913C91C5
:101380005A972115310509F015C118968D919C9138
:101390001997681779070CF0D7C11A968D919C910F
:1013A000481759070CF0D0C14C2C512CB6E0CB9EFD
:1013B000600D711D11247C876B87161617060CF0C3
:1013C000C3C1EA2DF0E0FA87E98793E0EE0FFF1F33
:1013D0009A95E1F7F88BEF87CF01840F951F1816C8
:1013E00019060CF0B1C1A98DBA8D58968C91811156
:1013F00004C0BFEABD1508F4D394A98DBA8DED9150
:10140000FC9111970284F385E02DCD010995B5E09B
:10141000DB9EC0011124E981FA81FC83EB83312C2E
:10142000212C9C0124593F4F388F2F8B4A2D50E09F
:101430005E8B4D8BEF89F88DE20DF31D44919E82FA
:101440008D82D12CC12C69817A81620D731D7A8BBA
:10145000698B842F90E09C8B8B8BE98DFA8DA0811A
:10146000B18140FF82C0F1E0BF126FC0AF126DC00A
:101470001C96ED91FC912F813885A4014C0D5D1DCA
:1014800069897A89898D9A8D0995EB89FC89F59509
:10149000E7954E2F5FEFC51AD50A6D817E818D8944
:1014A0009E89680F791F7E836D8398E0C916D104E9
:1014B00081F6AFEF2A1A3A0AEB81FC81E40DF51DA3
:1014C000FC83EB83F5E02F16310409F0B3CF2F81B5
:1014D000388526153705B9F0A98DBA8DED91FC91A7
:1014E000B1E0BB1257C0AB1255C069817A816B5F06
:1014F0007F4F0088F189E02D830128E030E0A401CE
:10150000898D9A8D0995A98DBA8DED91FC911197D0
:101510000688F789E02DCD016A960FB6F894DEBFF4
:101520000FBECDBFDF91CF911F910F91FF90EF9034
:10153000DF90CF90BF90AF909F908F907F906F90F3
:101540005F904F903F902F9009941E96ED91FC91E3
:10155000EF80F88409851A8592014D815E816B8147
:101560007C81898D9A8D099590CF2F81388526159C
:10157000370509F48ACF31E0B31207C0A31205C0C2
:101580001C96ED91FC91930178CF1E96ED91FC9104
:101590007301E0CF6B857C85641975090684F78536
:1015A000E02D73010F8518899201A401898D9A8D10
:1015B0000995A9CFF90134969491329745915491A8
:1015C000D91AB7E0DB9E400D511D1124F901259178
:1015D00034913C8B2B8BFA0125903490FA01329692
:1015E000749031963491398B329664903196449050
:1015F00041E04C1518F04A1508F07FC0662D062C06
:10160000000C770B7C836B83842D042C000C990BCE
:101610009E838D83A98DBA8DED91FC9111970284E3
:10162000F385E02DCD010995512CD12CC12CEA2D4B
:10163000F0E0FA87E9872B2D30E03C872B87A40167
:10164000440D511D47FC5A95588F4F8B69817A8103
:10165000660D711D67FC7A957E876D877989C7163F
:1016600008F051CF2C2D30E04D815E81420F531F89
:10167000A985BA854A9FC0014B9F900D5A9F900D36
:101680001124FC01E80DF91DF88BEF87852D612CE5
:101690004F89588D420F531F5E8B4D8B671408F096
:1016A00050C044244394480E877041F4C101019610
:1016B000EB89FC89E20DF31DD4901C01D7FE19C003
:1016C000A98DBA8DED91FC91662D70E0B1E0BB1251
:1016D00019C0AB1217C02D853E85620F731F04849D
:1016E000F585E02D2F8138854D895E89898D9A8D0C
:1016F0000995DD0C6394842DD1CF1E821D821C823E
:101700001B8288CF4B815C81640F751FAB85BC85C4
:101710006A9FC0016B9F900D7A9F900D1124698183
:101720007A81680F791F0684F785E02DEF80F884B1
:1017300009851A859D014F855889898D9A8D09954E
:10174000D8CF570CC3948ACF6A960FB6F894DEBFF1
:101750000FBECDBFDF91CF911F910F91FF90EF9002
:10176000DF90CF90BF90AF909F908F907F906F90C1
:101770005F904F903F902F9008958F929F92AF92DD
:10178000CF92EF92FF920F931F93CF93DF93EC01D1
:10179000262F898D9A8D009709F051C06A30D1F4B7
:1017A0001D861C868D8948E0849F900111248E85BA
:1017B0009F85820F931F9F878E8781E090E0DF9146
:1017C000CF911F910F91FF90EF90CF90AF909F908E
:1017D0008F9008956D3089F3CC88AD888F898823E8
:1017E000C1F08C859D8536E0C39E800D911D11242E
:1017F000488559854817590764F44E855F851D86CD
:101800001C8638E0A39EC0011124840F951F9F877A
:101810008E87EA88FB88088919894E855F856C85E3
:101820007D85CE010E9498092C898C859D8546E096
:10183000249F800D911D11249D878C87BECF6A3017
:1018400069F41D861C86FC013896E4912D898E85ED
:101850009F85E29F800D911D1124ADCF6D3009F45D
:10186000ACCFFC0134963491631708F4A6CF3296BE
:10187000E491E61708F4A1CFFC013296859094908C
:10188000462F431B342F47E0349F800C911C1124BA
:10189000F401329634913196E4913323A9F1EE2389
:1018A00099F1CC88F4013596E491AD884F894423B1
:1018B00001F10E2E000CFF0BE30FF11DCE9EA001D7
:1018C000CF9E500D11246C857D85460F571F68856E
:1018D0007985641775076CF44E855F851D861C86B7
:1018E000FC013896E491AE9E400D511D11245F8796
:1018F0004E87EA88FB88088919894E855F856C8543
:101900007D85CE010E949809F4013496E4912C89DA
:101910008C859D85E29F800D911D11248DCF6F9246
:101920007F928F929F92AF92BF92CF92DF92EF926F
:10193000FF920F931F93CF93DF93EC016B015A013A
:1019400039014801E881F9810284F385E02D099588
:10195000E881F9810288F389E02D87019301A501CF
:10196000B601CE010995A501480D591D41505109F7
:10197000E881F9810288F389E02D9301B601CE0157
:101980000995E881F9810088F189E02D9401A5018C
:10199000B601CE010995C60CD71CB601615071097C
:1019A000E881F9810088F189E02D9401A501CE013B
:1019B0000995E881F9810688F789E02DCE01DF914C
:1019C000CF911F910F91FF90EF90DF90CF90BF903C
:1019D000AF909F908F907F906F9009946F927F92BD
:1019E0008F929F92AF92BF92CF92DF92EF92FF922F
:1019F0000F931F93CF93DF935C01EB016A014901C1
:101A000038018701DC01ED91FC916217730719F52C
:101A1000641675062CF0962D872D3A01C92ED82E06
:101A20009601261937092F5F3F4F048CF58DE02D65
:101A3000A301BE01C5010995DF91CF911F910F91BF
:101A4000FF90EF90DF90CF90BF90AF909F908F90DE
:101A50007F906F9008954615570591F42617370724
:101A600024F0892D4B01C22FD82F9E012819390946
:101A70002F5F3F4F068CF78DE02DA601B401DACF22
:101A80000284F385E02D0995D501ED91FC91048840
:101A9000F589E02D83019401A601BE01C5010995D8
:101AA000D501ED91FC910688F789E02DC501DF9104
:101AB000CF911F910F91FF90EF90DF90CF90BF904B
:101AC000AF909F908F907F906F900994EF92FF92CC
:101AD0000F931F93DC011A960D911C911B9718967A
:101AE0002D913C911997ED91FC9100A0F1A1E02D71
:101AF0007B0150E040E070E060E009951F910F919C
:101B0000FF90EF9008954F925F926F927F928F9225
:101B10009F92AF92BF92CF92DF92EF92FF920F937C
:101B20001F93CF93DF936C012B015A0139014801B8
:101B3000DC01ED91FC910284F385E02D0995E20131
:101B4000640C751CD601ED91FC91C615D7055CF4AB
:101B50000088F189E02D87019401A501BE01C6012D
:101B600009952196EFCF0688F789E02DC601DF9110
:101B7000CF911F910F91FF90EF90DF90CF90BF908A
:101B8000AF909F908F907F906F905F904F9009944F
:101B90008F929F92AF92BF92CF92DF92EF92FF927D
:101BA0000F931F93CF93DF93EC015B014A0169010F
:101BB000E881F9810284F385E02D099595012C0DCA
:101BC0003D1D21503109E881F9810488F589E02D16
:101BD00078018401A401B501CE010995E881F9815C
:101BE0000688F789E02DCE01DF91CF911F910F91EB
:101BF000FF90EF90DF90CF90BF90AF909F908F902D
:101C000009948F929F92AF92BF92CF92DF92EF9200
:101C1000FF920F931F93CF93DF93EC015B014A0177
:101C200069017801E881F9810284F385E02D099545
:101C3000C80CD91C860101501109E881F98104887A
:101C4000F589E02D9501A401B501CE010995E88142
:101C5000F9810688F789E02DCE01DF91CF911F91A0
:101C60000F91FF90EF90DF90CF90BF90AF909F903B
:101C70008F900994EF92FF920F931F93DC01ED91E7
:101C8000FC9100A0F1A1E02D09951F910F91FF900B
:101C9000EF9008950F931F93DC01ED91FC91068C5A
:101CA000F78DE02D09951F910F9108950F931F93C4
:101CB000DC01ED91FC91048CF58DE02D09951F91CF
:101CC0000F910895DC01ED91FC910084F185E02DE8
:101CD00009943F924F925F926F927F928F929F9260
:101CE000AF92BF92CF92DF92EF92FF920F931F932A
:101CF000CF93DF935C017B014A016901390187E0E1
:101D0000680E711C93E0759467949A95E1F72B0126
:101D1000400E511E10E000E0312CD0E0C0E0CE01BA
:101D200087709927330C892B59F4FE0183E0F595D0
:101D3000E7958A95E1F7E00FF11FE80DF91D349062
:101D400037FE0AC021E030E0A701B5016C0F7D1F0E
:101D500081E892E00E94620E2196CC16DD06F9F62B
:101D60008FEFE81AF80A060D171DE414F504A9F61A
:101D7000DF91CF911F910F91FF90EF90DF90CF9067
:101D8000BF90AF909F908F907F906F905F904F909B
:101D90003F9008952F923F924F925F926F927F9261
:101DA0008F929F92AF92BF92CF92DF92EF92FF926B
:101DB0000F931F93CF93DF9300D000D000D0CDB707
:101DC000DEB73C016A013E832D83FC82EB82580121
:101DD000A41AB50AB7FE03C0B194A194B1088D80CE
:101DE0009E80861A970A97FE03C091948194910869
:101DF0008A149B045CF0902F812F0D811E819D839E
:101E00008E839C2D8D2D6B01692F782F0C151D0550
:101E10005CF09D818E817E836D83692F782F902F5A
:101E2000812F8601C92ED82E1601201A310A2B01C6
:101E30002D813E81421A530A57FE03C051944194AA
:101E40005108710137FE03C03FEFE31AF30AF5941E
:101E5000E7948D819E81861797075CF5A1E0B0E03D
:101E6000BA83A983C016D1064CF1D301ED91FC9140
:101E70000484F585E02D2B813C81A8016D817E8154
:101E80008A149B041CF04D815E81B801C301099541
:101E9000E418F508F7FE0AC02D813E8189819A81F8
:101EA000280F391F3E832D83E20CF31C0F5F1F4F59
:101EB000D9CF2FEF3FEF3A832983D4CF26960FB6A1
:101EC000F894DEBF0FBECDBFDF91CF911F910F9170
:101ED000FF90EF90DF90CF90BF90AF909F908F904A
:101EE0007F906F905F904F903F902F90089508954E
:101EF0002091D001260F3327331F21323105ECF416
:101F00002091F401FC0190E080E0243069F082E04F
:101F10000895A091D0012191AC0140555E4FA40FCE
:101F2000B52FB11D2C930196861798F38091D0019F
:101F3000680F6093D00180E0089581E008951092C9
:101F4000F40181E08093F6011092F50161E082E1F5
:101F50000E94A00561E083E10E94A005E9EBF0E0AA
:101F600080818E7F808380818D7F808388E48093D1
:101F7000B80085E48093BC000895CF93DF9391E08F
:101F80009093AF018823B9F0C091B800D091BA0006
:101F90008091BC008A7B8093BC0060E082E10E945B
:101FA000A00560E083E10E94A0050E949F0FD093EE
:101FB000BA00C093B800DF91CF910895E0916D020F
:101FC00080916C02E81730F4F0E0E657FE4F808114
:101FD00090E008958FEF9FEF089590916D028091AA
:101FE0006C022FEF3FEF981748F4E92FF0E0E65727
:101FF000FE4F208130E09F5F90936D02C9010895EC
:1020000080916C0290916D02891B990B0895CF927B
:10201000DF92EF92FF920F931F93CF93DF937C0198
:10202000CB018A0120917402222389F0EB016B011C
:10203000C40ED51ECC15DD0569F06991D701ED916F
:10204000FC910190F081E02DC7010995F3CF642F39
:102050000E94780FC801DF91CF911F910F91FF90DF
:10206000EF90DF90CF900895CF93DF931F92CDB77D
:10207000DEB76983209174022223F9F02091710266
:10208000203258F021E030E0FC013383228390E0DD
:1020900080E00F90DF91CF91089580917202E82F38
:1020A000F0E0E659FE4F998190838F5F8093720232
:1020B0008093710281E090E0ECCF61E0CE01019667
:1020C0000E94780FF7CFCF92DF92EF92FF920F939B
:1020D0001F93CF93DF93D091710281E0D13208F04A
:1020E0009CC0C09173020E941D066B017C0180910F
:1020F000F40181116CC082E08093F40181E080934F
:10210000F6018FEF8093F30110921802D09317021B
:10211000AAE6B1E0E7EFF1E080E0D8138DC01092BD
:10212000190280911902CC0FC82BC093190280911B
:10213000F501813009F084C01092F5010E941D065E
:102140006B017C01809119028093BB008091AB01EF
:102150009091AC01A091AD01B091AE01892B8A2B79
:102160008B2BA1F00E941D060091AB011091AC01D8
:102170002091AD013091AE016C197D098E099F0946
:10218000061717072807390708F442C08091BC00DA
:1021900083FDD8CF85EC8093BC000E941D066B01A7
:1021A0007C018091F401823009F44CC08091F301EC
:1021B0008F3F09F469C08091F301803209F466C051
:1021C0008091F301803309F463C084E026C08091DC
:1021D000AB019091AC01A091AD01B091AE01892B02
:1021E0008A2B8B2B09F483CF0E941D060091AB0133
:1021F0001091AC012091AD013091AE016C197D09B7
:102200008E099F09061717072807390708F06FCFAF
:102210008091AA010E94BD0F85E010927202109277
:10222000710210927402DF91CF911F910F91FF9074
:10223000EF90DF90CF9008959D9191938F5F6DCF38
:1022400085EEA9CF8091AB019091AC01A091AD0139
:10225000B091AE01892B8A2B8B2B09F4A2CF0E945F
:102260001D060091AB011091AC012091AD013091A0
:10227000AE016C197D098E099F09061717072807FB
:10228000390708F08ECFC4CF80E0C7CF82E0C5CF3A
:1022900083E0C3CFEF92FF920F931F93CF93DF930F
:1022A0007C01C62F80919E0290919F02009709F4B5
:1022B00059C02091A20231E030937402209373023E
:1022C0001092720210927102DC01ED91FC9101906A
:1022D000F081E02D60E009958701EE24E394F12C74
:1022E000D1E0C15080919E0290919F02CF3F91F129
:1022F000B0E2EB16F104D8F00E94631080919E02C8
:1023000090919F022091A202D093740220937302B5
:102310001092720210927102DC01ED91FC91019019
:10232000F081E02D60E00995EE24E394F12C80919A
:102330009E0290919F02F8016491DC01ED91FC9165
:102340000190F081E02D0995BFEFEB1AFB0A0F5FBA
:102350001F4FC7CFDF91CF911F910F91FF90EF904B
:102360000C946310E091AE02F091AF0290818091E5
:10237000B4028095892380838701C15008F438C056
:10238000F801849120919C0230919D02232B29F029
:102390000E9478090F5F1F4FF0CF28E030E040E83F
:1023A000E091AA02F091AB029091B202582F54230F
:1023B000D9F05081952B9083E091AC02F091AD0261
:1023C00090815091B302952B9083E091AC02F091F3
:1023D000AD0250819091B3029095952390834695DC
:1023E00021503109E9F6D6CF508190959523E3CF5E
:1023F000DF91CF911F910F91FF90EF9008951F9360
:10240000CF93DF93EC018D8D9E8D009721F1162FD8
:1024100029A131E03093740220937302109272026A
:1024200010927102DC01ED91FC910190F081E02DA0
:1024300060E009958D8D9E8DDC01ED91FC91019000
:10244000F081E02D612F09958D8D9E8DDF91CF91CB
:102450001F910C946310ADA5BEA59C918BA980958E
:1024600089238C938B8D9C8D892B31F0862FDF9166
:10247000CF911F910C94780928E030E080E8A9A55D
:10248000BAA599A9462F4823C1F04C91942B9C934F
:10249000ABA5BCA59C914AA9942B9C93ABA5BCA5CC
:1024A0004C919AA9909594239C938695215031093B
:1024B00031F7DF91CF911F9108954C91909594231E
:1024C000E6CF1F93CF93DF93EC01162F8D8D9E8D5A
:1024D000892BB1F12DA93EA94FA958AD60E074E256
:1024E00084EF90E00E94CD2020513109410951092B
:1024F00056954795379527952093B80066EA1111B0
:1025000067EACE010E94FF118D8D9E8D892B41F1CE
:1025100029AD3AAD4BAD5CAD60E074E284EF90E084
:102520000E94CD2020513109410951095695479506
:10253000379527952093B800DF91CF911F9108958B
:102540008B8D9C8D892B21F08EAD9FAD0E947F09D4
:10255000EFA5F8A990818CA9809589238083CECF9F
:10256000EFA5F8A980819CA9892B8083E5CF90E015
:1025700080E008954F925F926F927F92AF92BF92E8
:10258000CF92DF92EF92FF920F931F93CF93DF933F
:102590002B013C01EA01590120E030E0A9010E9431
:1025A000D81E87FD3AC020E030E040E451E4C3018A
:1025B000B2010E943720181634F4412C512C80E4CB
:1025C000682E81E4782E86E090E09983888385E602
:1025D00090E0F501918380838AE390E0F801918394
:1025E0008083F5018081918128813981821B930B41
:1025F00097FF17C0F6011182108280E0DF91CF9122
:102600001F910F91FF90EF90DF90CF90BF90AF9010
:102610007F906F905F904F900895412C512C320124
:10262000D2CF20E030E040E451E4C301B2010E9487
:10263000DD1E20E030E044E552E40E943C2020E032
:1026400030E040E05FE30E946C1E0E944F1FF601E5
:1026500071836083161617066CF66633710524F0D5
:1026600085E390E091838083F80180819181F60178
:1026700020813181821B930B0196853091052CF0CE
:10268000F7019183808381E0B9CF85E090E0F8CFB6
:102690008F929F92AF92BF920F931F93CF93DF932E
:1026A000CDB7DEB7A1970FB6F894DEBF0FBECDBF92
:1026B00019A2423008F44AE08E010F5D1F4F842EAC
:1026C000912CB12CA12CA50194010E94CD20E62FC4
:1026D000B901CA01EA3044F5E05DD801EE938D01FD
:1026E000232B242B252B79F790E080E0109769F0BD
:1026F000FD0101900020E9F73197AF014A1B5B0B08
:10270000BD0181E892E00E947305A1960FB6F8948E
:10271000DEBF0FBECDBFDF91CF911F910F91BF9054
:10272000AF909F908F900895E95CD7CF209187025A
:1027300030918802C901079697FD079623E0959589
:1027400087952A95E1F72091850230918602829F34
:10275000A001839F500D929F500D112470E060E006
:102760008091A0029091A1020C944D220E944822D7
:1027700085ED8093BC008091AB019091AC01A0915C
:10278000AD01B091AE010796A11DB11D23E0B69534
:10279000A795979587952A95D1F72091BC0024FDA0
:1027A00003C01092F40108954091AB015091AC0127
:1027B0006091AD017091AE01452B462B472B69F31B
:1027C0000097A105B10541F025E32A95F1F7000036
:1027D0000197A109B109E1CF8091AA010C94BD0F25
:1027E0002F923F924F925F926F927F928F929F9221
:1027F000AF92BF92CF92DF92EF92FF920F931F930F
:10280000CF93DF93CDB7DEB764970FB6F894DEBFF2
:102810000FBECDBF4B015C010E9496139E01275F46
:102820003F4F3C8B2B8BCE0101966C0179018E01C1
:10283000055F1F4F2C5F3F4FAE01415F5F4FC501EA
:10284000B4010E94BA12882309F499C06F8578896F
:10285000CD84DE84C61AD70A49855A850B851C8526
:10286000041B150B0F5F1F4F96012F5F3F4FEE2488
:10287000E394F12C81E892E00E94830D89819A8192
:1028800002970CF47CC02FB7F89460915B027091B2
:102890005C0280915D0290915E022FBF28E833E1D7
:1028A00040E050E00E94CD209B01AC01B6010D2C10
:1028B000000C880B990B243CB9E03B0741055105FE
:1028C00008F04DC00E94A92024EC39E040E050E01F
:1028D0000E94CD208901EF84F888B7E02B2E312C9F
:1028E00083E0482E512C8D859E858E159F050CF416
:1028F00046C08F859889F701E81BF90BCF01801B33
:10290000910B97FF03C091958195910988309105AE
:1029100014F59101281B390BC901B2010E94B9209D
:102920003B013FEF631A730ACC24C394D12C498531
:102930005A854C195D09453051053CF021E030E0E5
:10294000B70181E892E00E94C8088FEFC81AD80A40
:102950006C147D0464F79FEFE91AF90AC4CF245C74
:102960003940410951090E94A92024EC39E040E096
:1029700050E00E94CD208601021B130BACCF01E07A
:1029800010E028E330E044E050E064E070E081E8EB
:1029900092E00E94380824E630E04CE350E064E026
:1029A00070E081E892E00E94810828E330E044E092
:1029B00050E067E670E081E892E00E94380888E025
:1029C000EAE0F1E0DE01119601900D928A95E1F7BF
:1029D00081E0809395028093960281E090E090934D
:1029E0009402809393029093920280939102DE016D
:1029F00011961D01F101C190D1901F010D2C000C09
:102A0000EE08FF08C701B6010E94871F20E030E0F2
:102A100040E451E40E94DD1E20E030E040E652E454
:102A20000E943C200E944F1F2B014CE350E0461BAC
:102A3000570B01E010E024E030E06AE670E081E846
:102A400092E00E94810889E390E084199509893316
:102A5000910514F088E390E020E730E030938E0297
:102A600020938D0297FF02C090E080E09093900247
:102A700080938F024AE0C701B601F7FE0DC06DE2F8
:102A800081E892E00E94BD0B66277727CB016C1985
:102A90007D098E099F094AE00E9448138B899C8911
:102AA0008215930509F0A6CF20E030E0A901C50109
:102AB000B4010E94D81E87FD59C120E030E040E4F7
:102AC00051E4C501B4010E94372018160CF452C11C
:102AD000C501B4010E944F1F8B01072E000C880B0B
:102AE000990B0E94871F9B01AC01C501B4010E9494
:102AF0006B1E20E030E048EC52E40E943C2020E0D5
:102B000030E040E05FE30E946C1E0E944F1F64367D
:102B1000710524F00F5F1F4F70E060E07F936F93AB
:102B20001F930F9382E691E09F938F931F9288E00B
:102B30008F93DE0111963D01BF93AF930E94542203
:102B4000F30101900020E9F73197E619F7092CE02D
:102B50002E9FC0012F9F900D1124E3E64E2E512C85
:102B6000481A590A0FB6F894DEBF0FBECDBF57FE04
:102B700003C0FFEF4F1A5F0A5594479424E0420EBA
:102B8000511CCE0109966C01DE011B967D018E0160
:102B9000035F1F4F9E01215F3F4FAE014F5E5F4FAE
:102BA000C501B4010E94BA12882359F08B859C8517
:102BB000819734F481E02D853E85203231050CF477
:102BC00080E092E0909395029093960291E089279D
:102BD00090E090939402809393029093920280935A
:102BE000910250928E0240928D0288E190E0909383
:102BF000900280938F02F30101900020E9F7319752
:102C0000AF0146195709B30181E892E00E947305AC
:102C100080919E0290919F02892B09F4B2C020916D
:102C2000B6023091B7024091B8025091B90260E00B
:102C300074E284EF90E00E94CD20205131094109D7
:102C4000510956954795379527952093B80064E02C
:102C500088E690E00E944A11809185029091860258
:102C60008034910509F0A4C060E281E892E00E94FE
:102C7000FF1160918502615E81E892E00E94FF1180
:102C80002091870230918802C901079697FD079627
:102C900033E0959587953A95E1F72091850230913B
:102CA0008602829F7001839FF00C929FF00C11248A
:102CB0000091A0021091A10280919E0290919F022A
:102CC000E00EF11E009709F4B6C02091A20231E097
:102CD0003093740220937302109272021092710268
:102CE000DC01ED91FC910190F081E02D60E409950B
:102CF000CC24C394D12CBB24B39480919E02909198
:102D00009F02E016F10609F45CC0B0E2CB16D104D4
:102D1000D8F00E94631080919E0290919F022091B2
:102D2000A202B09274022093730210927202109267
:102D30007102DC01ED91FC910190F081E02D60E4E5
:102D40000995CC24C394D12C80919E0290919F022E
:102D5000F80161918F01DC01ED91FC910190F0810E
:102D6000E02D0995BFEFCB1ADB0AC7CF812C912C40
:102D70005401AECE812C912CF0E4AF2EF1E4BF2EA5
:102D8000A7CE80919C0290919D02892B31F0809179
:102D9000BF029091C0020E947F09E091B002F091C1
:102DA000B10290818091B5028095892380834FCFB5
:102DB00060E081E892E00E94FF116091850261501D
:102DC0005BCF0E94631080919E0290919F02892B9D
:102DD00009F475C02091BA023091BB024091BC0247
:102DE0005091BD0260E074E284EF90E00E94CD203B
:102DF0002051310941095109569547953795279535
:102E00002093B80064960FB6F894DEBF0FBECDBF16
:102E1000DF91CF911F910F91FF90EF90DF90CF90B6
:102E2000BF90AF909F908F907F906F905F904F90EA
:102E30003F902F900895E091AE02F091AF02808113
:102E40009091B402892B8083E016F10609F4BBCF80
:102E5000F80181918F0120919C0230919D02232BDA
:102E600019F00E947809F0CF28E030E040E8E091C6
:102E7000AA02F091AB029091B202582F5423D9F0DC
:102E80005081952B9083E091AC02F091AD0290813E
:102E90005091B302952B9083E091AC02F091AD027A
:102EA00050819091B302909595239083469521503F
:102EB0003109E9F6C9CF508190959523E3CFE09190
:102EC000B002F091B10280819091B502892B80838C
:102ED00099CF1F920F920FB60F9211242F933F9309
:102EE0008F939F93AF93BF9380915B0290915C020D
:102EF000A0915D02B0915E0230915A0223E0230F4F
:102F00002D3758F50196A11DB11D20935A028093CB
:102F10005B0290935C02A0935D02B0935E0280918D
:102F20005F0290916002A0916102B09162020196ED
:102F3000A11DB11D80935F0290936002A093610276
:102F4000B0936202BF91AF919F918F913F912F916A
:102F50000F900FBE0F901F90189526E8230F029632
:102F6000A11DB11DD2CF1F920F920FB60F92112447
:102F70002F933F934F935F936F937F938F939F9381
:102F8000AF93BF93EF93FF93E0916502F0916602D8
:102F9000309749F0A685B7858585968D91FF14C039
:102FA0009C918923A1F4FF91EF91BF91AF919F91E3
:102FB0008F917F916F915F914F913F912F910F90E2
:102FC0000FBE0F901F9018959C91892361F7A389DC
:102FD000B4899C918589809589238C93868997896A
:102FE0000197F1F7608D718DA685B785558538E01D
:102FF00020E0CB010197F1F7822F90E0959587951E
:10300000282F4C91452309F02068315091F7868D87
:1030100081FD20958091640290E001968F7399273D
:1030200030916302381799F0A0916402B0E0A65E77
:10303000BD4F2C9380936402828D938D0197F1F79D
:10304000A389B4898C919589892B8C93ACCF868D7B
:103050008160868FF1CF1F920F920FB60F921124CD
:103060002F933F934F935F936F937F938F939F9390
:10307000AF93BF93EF93FF938091B900887F803621
:1030800009F44AC0F0F5883209F4A7C018F5803178
:1030900009F49BC0B8F4882309F4F9C0883009F416
:1030A00094C0FF91EF91BF91AF919F918F917F91CC
:1030B0006F915F914F913F912F910F900FBE0F90A5
:1030C0001F901895883109F488C0803251F7809399
:1030D000F30114C0803409F49DC040F48033B9F387
:1030E0008833F9F68093F30185ECB0C0803509F49C
:1030F00085C0883509F496C0883499F60E94B813C3
:10310000D0CF883909F48CC038F5883729F050F4CD
:10311000883611F0803729F683E08093F40110920D
:10312000F20157C0883809F47BC0803919F0803823
:1031300009F0B7CF8091F201803208F071C0E091C0
:10314000F20181E08E0F8093F2018091BB00F0E0EC
:10315000EE52FE4F80833DC0803B39F0E0F4803A70
:1031600009F479C0883A09F09CCF84E08093F40197
:103170001092D1011092D001E0916A02F0916B029D
:1031800009958091D00181110FC081E08093D00119
:103190001092B00109C0803C09F4A6CF883C09F424
:1031A000A3CF883B09F07DCFE091D10181E08E0F64
:1031B0008093D101F0E0E055FE4F80818093BB0009
:1031C0009091D1018091D00129C080911902809302
:1031D000BB0085EC8093BC0064CF90911802809175
:1031E0001702981758F5E091180281E08E0F80932E
:1031F0001802F0E0E950FE4F8081E9CFE09118021B
:1032000081E08E0F809318028091BB00F0E0E950BE
:10321000FE4F808390911802809117029817C8F290
:1032200085E8D8CFE091180281E08E0F80931802D4
:103230008091BB00F0E0E950FE4F80838091F60161
:1032400081115CCF81E08093F50184EA8093BC001A
:103250001092F40126CF85EC8093BC001092F4010B
:103260008091F201803230F4E091F201F0E0EE5210
:10327000FE4F10826091F20170E0E0916802F091DF
:10328000690282ED91E009951092F2010ACF109245
:10329000F30134CF109278021092770288EE93E017
:1032A000A0E0B0E08093790290937A02A0937B0231
:1032B000B0937C0226E131E03093760220937502D0
:1032C0001092C4021092C3028093C5029093C6026A
:1032D000A093C702B093C80284E591E09093C20224
:1032E0008093C1021092D8021092D7021092DA0293
:1032F0001092D9021092DC021092DB021092DE02D0
:103300001092DD026091DF026E7F6D7F6093DF02BD
:103310006695617081E0682787E00E94A00561E002
:1033200087E00E94EC05EBE7FAE0E491E093D1023C
:10333000E7E6FAE0E491F0E0EE0FFF1FEA5AF54FFE
:10334000859194919093D3028093D20260E088E0BB
:103350000E94EC058091DF0281FD04C061E088E0FD
:103360000E94A00588E08093CD02ECE7FAE0E491AA
:10337000E093CE02E8E6FAE0E491F0E0EE0FFF1F02
:10338000E45BF54F859194919093D0028093CF02A6
:10339000109284021092830220E830E0309386027B
:1033A0002093850280E490E09093880280938702C6
:1033B00030938A022093890290938C0280938B022F
:1033C0001092970210928E0210928D02109290022B
:1033D00010928F0281E080939602809395022FEFE6
:1033E0003FEF309394022093930230939202209304
:1033F0009102809398021092990210929B0210926F
:103400009A0288E291E09093820280938102109266
:103410009D0210929C0285E792E090939F02809318
:103420009E021092A1021092A0028FEF8093A5023B
:103430008093A6028093A7028093A80284E08093E1
:10344000A90280E58093BF021092C002089578948B
:1034500084B5826084BD84B5816084BD85B5826099
:1034600085BD85B5816085BD80916E00816080934A
:103470006E001092810080918100826080938100B3
:1034800080918100816080938100809180008160C3
:10349000809380008091B10084608093B10080911E
:1034A000B00081608093B00080917A008460809346
:1034B0007A0080917A00826080937A0080917A000D
:1034C000816080937A0080917A00806880937A008E
:1034D0001092C1001092DC021092DB021092DA020C
:1034E0001092D9021092D8021092D7028DE991E081
:1034F0009093DE028093DD029091CD02963108F028
:1035000047C02DEB30E03093D8022093D7022BE94F
:1035100031E03093DA022093D9022CE231E030938B
:10352000DC022093DB022091680084E0983048F0B0
:1035300031E09E3008F430E081E001C0880F3A9518
:10354000EAF7822B809368002DE630E0983050F047
:103550002BE630E09E3030F02CE630E0963110F073
:1035600030E020E03093D5022093D402292F30E0C0
:10357000983008F064C081E001C0880F9A95EAF79E
:103580008093D6028091DD029091DE020197F1F7DF
:103590008091DB029091DC02892B49F1E091650278
:1035A000F091660242E0E13CF40709F1309739F00E
:1035B000A389B4899C918589809589238C93809176
:1035C000DF028E7F8093DF0210926402109263020A
:1035D00081EC92E09093660280936502E091D402C0
:1035E000F091D50280819091D602892B80838091C1
:1035F000A0029091A102892B79F10E94961320914B
:103600008702309188028091850290918602213252
:1036100031050CF0FDC0B9016052710977FF02C09D
:103620006F5F7F4F759567958357910997FD019659
:1036300000E210E023E730E04CEA55E0FCC09E30A9
:1036400040F42850310981E001C0880F2A95EAF73B
:1036500097CF2E503109F7CF209187023091880201
:10366000C901079697FD0796B3E095958795BA959A
:10367000E1F72091850230918602AC01429FC001A2
:10368000439F900D529F900D11240E9423219093EF
:10369000A1028093A002892B09F0AFCF0E9496135C
:1036A0008090000190900101A0900201B090030170
:1036B00020E030E0A901C501B4010E94D81E87FDB9
:1036C000ACC226E636E646EE5FE3C501B4010E94D1
:1036D000372018160CF4A5C226E535E545ED50E473
:1036E000C501B4010E943C200E94F013C0E0D0E06C
:1036F00012E001E053E0F52E81EC92E00E94E80632
:10370000892B09F453C081EC92E00E9400072091BC
:103710007002213009F493C208F48BC2223009F4FC
:1037200093C2233049F71092700260916F0220918A
:103730006E0270E0AB0141505F4F30E0420F531F0B
:10374000992748171906C1F6762F6627622B732B27
:1037500090E080E00E94851F20E030E048EC52E4D9
:103760000E94DD1E9B01AC0166E676E686EE9FE3D5
:103770000E946B1E4B015C0120E030E0A9010E9419
:10378000D81E87FD66C226E636E646EE5FE3C50133
:10379000B4010E94372018160CF45FC28092000119
:1037A00090920101A0920201B09203018090000169
:1037B00090900101A0900201B090030120E030E060
:1037C000A901C501B4010E94D81E87FD4EC226E69C
:1037D00036E646EE5FE3C501B4010E9437201816B5
:1037E0000CF447C226E535E545ED50E4C501B401CA
:1037F0000E943C200E94F01362E370E080E090E0C1
:103800000E944206209709F477CF0E94000074CFEF
:10381000B9016054710977FF02C06F5F7F4F7595E2
:1038200067958255910997FD019600E410E022E525
:1038300030E04CE857E0959587950E94690E82E04C
:103840008093A30280919E0290919F02892B09F49C
:10385000DFC08DE38093A20210926D0210926C0281
:1038600010927202109271020E949F0F81E795E000
:1038700090936B0280936A0282E795E090936902CD
:10388000809368028091A90287FD1EC061E00E94BA
:10389000EC0561E08091A9020E94A00561E070E062
:1038A00080E090E00E94420660E08091A9020E94C0
:1038B000A0056AE070E080E090E00E94420661E0CE
:1038C0008091A9020E94A00580919E0290919F0282
:1038D000892B09F45CC12091B6023091B702409166
:1038E000B8025091B90260E074E284EF90E00E9467
:1038F000CD202051310941095109569547953795F9
:1039000027952093B80064E088EA95E00E944A1168
:1039100060918702615081E892E00E94FF1164E0AB
:1039200084EA95E00E944A118091A30260E181300F
:1039300009F064E181E892E00E94FF1164E080EA0E
:1039400095E00E944A118FE88093BE028091850223
:10395000909186028038910509F030C180918702EC
:10396000909188028034910509F038C18091A302BA
:10397000813009F046C18FE98093BE02C2E16AED51
:1039800081E892E00E94FF116C2F81E892E00E9492
:10399000FF1161E881E892E00E94FF116091BE0290
:1039A00081E892E00E94FF1169ED81E892E00E94B7
:1039B000FF118091A30262E2813009F061EF81E89A
:1039C00092E00E94FF1166E08AE995E00E944A11A8
:1039D00080919E0290919F02892B09F414C120913D
:1039E000BA023091BB024091BC025091BD0260E02E
:1039F00074E284EF90E00E94CD202051310941090A
:103A0000510956954795379527952093B80046CE8E
:103A100061E08091A7020E94EC0561E08091A8021C
:103A20000E94EC058091A702082E000C990BFC0166
:103A3000E05AF54FE491F0E0EE0FFF1FEA5AF54F20
:103A4000259134913093AF022093AE02FC01EC58E3
:103A5000F54FE491E093B4028091A802082E000C87
:103A6000990BFC01E05AF54FE491F0E0EE0FFF1FD7
:103A7000EA5AF54FA591B491B093B102A093B00268
:103A8000FC01EC58F54FE491E093B5028C91E82BE2
:103A9000EC9380919C0290919D02892B09F434C093
:103AA000CFB7F89480916702811127C0EAE6FAE067
:103AB0008491EEE7FAE09491E82FF0E0EE0FFF1F1B
:103AC000E057FA4FA591B491EC91E92321F461E01C
:103AD0008AE00E94A00561E08AE00E94EC058CB5B6
:103AE00080618CBD8CB580648CBD61E08DE00E94EE
:103AF000EC0561E08BE00E94EC05809167028F5F2E
:103B000080936702CFBFBECE61E08091A5020E9484
:103B1000EC0561E08091A6020E94EC058091A5026F
:103B2000082E000C990BFC01E05AF54FE491F0E0EF
:103B3000EE0FFF1FEA5AF54F259134913093AB02F7
:103B40002093AA02FC01EC58F54FE491E093B202F5
:103B50008091A602082E000C990BFC01E05AF54F4B
:103B6000E491F0E0EE0FFF1FEA5AF54FA591B491F2
:103B7000B093AD02A093AC02FC01EC58F54FE49178
:103B8000E093B3028C91E095E823EC937BCE809197
:103B90009C0290919D02892B31F08091BF029091FF
:103BA000C0020E947F09E091B002F091B1029081C1
:103BB0008091B502809589238083A5CE80369105BA
:103BC00089F48091870290918802409739F480911E
:103BD000A302813029F480E18093BE02C2E0CFCEFF
:103BE0008FEAFACF80349105C9F7809187029091CE
:103BF0008802809799F78091A302813011F480E1C7
:103C0000BBCE8FECB9CEE091B002F091B1028081D1
:103C10009091B502892B808341CD812C912C540148
:103C20005BCD66E6862E982C66EEA62E6FE3B62E4A
:103C300053CD8F3F09F060CD009370025DCD80932E
:103C40006F021093700258CD80936E02F092700252
:103C500053CD812C912C5401A1CD96E6892E982C20
:103C600096EEA92E9FE3B92E99CD812C912C54016B
:103C7000B9CD86E6882E982C86EEA82E8FE3B82E36
:103C8000B1CD88E291E0909382028093810280918D
:103C9000A0029091A102009711F00E94BF2184E53B
:103CA00091E09093C2028093C1028091650290914D
:103CB0006602815C924071F4E091D402F091D502E9
:103CC00090818091D602809589238083109266022C
:103CD0001092650208955058BB27AA270E94831EA0
:103CE0000C94FD1F0E94EF1F38F00E94F61F20F079
:103CF00039F49F3F19F426F40C94EC1F0EF4E09570
:103D0000E7FB0C94E61FE92F0E940E2058F3BA1728
:103D1000620773078407950720F079F4A6F50C94E1
:103D200030200EF4E0950B2EBA2FA02D0B01B90117
:103D300090010C01CA01A0011124FF27591B99F021
:103D4000593F50F4503E68F11A16F040A22F232F2D
:103D5000342F4427585FF3CF469537952795A7957D
:103D6000F0405395C9F77EF41F16BA0B620B730B24
:103D7000840BBAF09150A1F0FF0FBB1F661F771F95
:103D8000881FC2F70EC0BA0F621F731F841F48F44A
:103D9000879577956795B795F7959E3F08F0B0CFD3
:103DA0009395880F08F09927EE0F979587950895BA
:103DB0000E94C21F08F481E008950E94F11E0C9435
:103DC000FD1F0E94F61F58F00E94EF1F40F029F4DB
:103DD0005F3F29F00C94E61F51110C9431200C9494
:103DE000EC1F0E940E2068F39923B1F3552391F341
:103DF000951B550BBB27AA2762177307840738F05A
:103E00009F5F5F4F220F331F441FAA1FA9F335D0B6
:103E10000E2E3AF0E0E832D091505040E695001C6A
:103E2000CAF72BD0FE2F29D0660F771F881FBB1F24
:103E3000261737074807AB07B0E809F0BB0B802D02
:103E4000BF01FF2793585F4F3AF09E3F510578F02E
:103E50000C94E61F0C9431205F3FE4F3983ED4F3BA
:103E6000869577956795B795F7959F5FC9F7880F02
:103E7000911D9695879597F90895E1E0660F771F54
:103E8000881FBB1F621773078407BA0720F0621BE5
:103E9000730B840BBA0BEE1F88F7E09508950E9410
:103EA000561F6894B1110C94312008950E94162079
:103EB00088F09F5798F0B92F9927B751B0F0E1F0EB
:103EC000660F771F881F991F1AF0BA95C9F714C09B
:103ED000B13091F00E943020B1E008950C94302070
:103EE000672F782F8827B85F39F0B93FCCF38695D4
:103EF00077956795B395D9F73EF490958095709531
:103F000061957F4F8F4F9F4F0895E89409C097FBAD
:103F10003EF490958095709561957F4F8F4F9F4FA0
:103F20009923A9F0F92F96E9BB279395F6958795E4
:103F300077956795B795F111F8CFFAF4BB0F11F4A7
:103F400060FF1BC06F5F7F4F8F4F9F4F16C088234E
:103F500011F096E911C0772321F09EE8872F762F84
:103F600005C0662371F096E8862F70E060E02AF0C5
:103F70009A95660F771F881FDAF7880F96958795B1
:103F800097F90895990F0008550FAA0BE0E8FEEF86
:103F900016161706E807F907C0F012161306E4070D
:103FA000F50798F0621B730B840B950B39F40A2606
:103FB00061F0232B242B252B21F408950A2609F4E4
:103FC000A140A6958FEF811D811D089597F99F67E8
:103FD00080E870E060E008959FEF80EC0895002491
:103FE0000A941616170618060906089500240A945E
:103FF00012161306140605060895092E0394000CE4
:1040000011F4882352F0BB0F40F4BF2B11F460FF72
:1040100004C06F5F7F4F8F4F9F4F089557FD90589B
:10402000440F551F59F05F3F71F04795880F97FB7C
:10403000991F61F09F3F79F0879508951216130636
:104040001406551FF2CF4695F1DF08C01616170665
:104050001806991FF1CF869571056105089408959A
:10406000E894BB2766277727CB0197F908950E942C
:10407000C21F08F48FEF08950E944F200C94FD1F7B
:104080000E94EF1F38F00E94F61F20F0952311F0D8
:104090000C94E61F0C94EC1F11240C9431200E9408
:1040A0000E2070F3959FC1F3950F50E0551F629F4E
:1040B000F001729FBB27F00DB11D639FAA27F00D81
:1040C000B11DAA1F649F6627B00DA11D661F829FA8
:1040D0002227B00DA11D621F739FB00DA11D621F8D
:1040E000839FA00D611D221F749F3327A00D611DAA
:1040F000231F849F600D211D822F762F6A2F11248C
:104100009F5750409AF0F1F088234AF0EE0FFF1FBE
:10411000BB1F661F771F881F91505040A9F79E3F15
:10412000510580F00C94E61F0C9431205F3FE4F3BE
:10413000983ED4F3869577956795B795F795E7956B
:104140009F5FC1F7FE2B880F911D9695879597F974
:104150000895DB018F939F930E94EF20BF91AF9151
:10416000A29F800D911DA39F900DB29F900D1124D1
:10417000089597FB072E16F4009407D077FD09D019
:104180000E94FA2007FC05D03EF4909581959F4F40
:104190000895709561957F4F0895A1E21A2EAA1B8C
:1041A000BB1BFD010DC0AA1FBB1FEE1FFF1FA217E7
:1041B000B307E407F50720F0A21BB30BE40BF50BE4
:1041C000661F771F881F991F1A9469F7609570956D
:1041D000809590959B01AC01BD01CF0108950E948F
:1041E0001421A59F900DB49F900DA49F800D911D4B
:1041F00011240895AA1BBB1B51E107C0AA1FBB1FB6
:10420000A617B70710F0A61BB70B881F991F5A9562
:10421000A9F780959095BC01CD010895EE0FFF1F81
:104220000590F491E02D0994A29FB001B39FC001C5
:10423000A39F700D811D1124911DB29F700D811DD2
:104240001124911D08950F931F93CF93DF93823014
:10425000910510F482E090E0E091E202F091E30237
:1042600030E020E0B0E0A0E0309799F4211531056E
:1042700009F44AC0281B390B24303105D8F58A814E
:104280009B816115710589F1FB0193838283FE0196
:1042900011C0408151810281138148175907E0F014
:1042A0004817590799F4109761F012960C931297DA
:1042B00013961C933296CF01DF91CF911F910F91EE
:1042C00008950093E2021093E302F4CF2115310523
:1042D00051F04217530738F0A901DB019A01BD01E3
:1042E000DF01F801C1CFEF01F9CF9093E302809392
:1042F000E202CDCFFE01E20FF31F81939193225092
:10430000310939832883D7CF2091E0023091E1022F
:10431000232B41F420910601309107013093E102F3
:104320002093E0022091040130910501211531050F
:1043300041F42DB73EB74091080150910901241B6B
:10434000350BE091E002F091E102E217F307A0F4EF
:104350002E1B3F0B2817390778F0AC014E5F5F4FDB
:104360002417350748F04E0F5F1F5093E10240932A
:10437000E002819391939FCFF0E0E0E09CCFCF9358
:10438000DF930097E9F0FC01329713821282A0912B
:10439000E202B091E302ED0130E020E01097A1F4D9
:1043A00020813181820F931F2091E0023091E10240
:1043B0002817390709F061C0F093E102E093E002A9
:1043C000DF91CF910895EA01CE17DF07E8F54A8122
:1043D0005B819E0141155105B1F7E901FB83EA8339
:1043E00049915991C40FD51FEC17FD0761F48081E5
:1043F00091810296840F951FE901998388838281B8
:1044000093819B838A83F0E0E0E012968D919C91EA
:1044100013970097B9F52D913C911197CD01029614
:10442000820F931F2091E0023091E1022817390793
:1044300039F6309751F51092E3021092E202B093F0
:10444000E102A093E002BCCFD383C28340815181BB
:10445000840F951FC817D90761F44E5F5F4F88819D
:104460009981480F591F518340838A819B8193838F
:1044700082832115310509F0B0CFF093E302E09378
:10448000E2029ECFFD01DC01C0CF13821282D7CFA2
:1044900081E090E0F8940C943925DC0101C06D9323
:1044A00041505040E0F70895AEE0B0E0EAE5F2E2B6
:1044B0000C9410250D891E898F89988D26E02C83F8
:1044C0001A83098397FF02C080E090E801979E83DA
:1044D0008D83AE01455E5F4F698D7A8DCE01019669
:1044E0000E9484224D815E8157FD0AC02F8138854C
:1044F000421753070CF49A01020F131FF8011082A0
:104500002E96E4E00C942C25ABE0B0E0EAE8F2E271
:104510000C9402257C013B018A01FC011782168262
:10452000838181FFC8C1CE0101965C01F7019381AF
:10453000F30193FD859193FF81913F01882309F455
:1045400053C1853239F493FD859193FF81913F01E9
:10455000853229F4B70190E00E947424E7CF912CB2
:10456000212C312CFFE1F31538F08B3211F190F44E
:10457000803209F1833229F137FC3CC020ED280F4D
:104580002A3050F536FE20C08AE0989E200D112476
:10459000922E06C08D3291F0803371F7689430F816
:1045A000F30193FD859193FF81913F018111DACF52
:1045B00021C0689431F8689432F8F2CF689433F8E7
:1045C000EFCF689434F8ECCFEAE02E9E200D112452
:1045D000222E689435F8E4CF8E3229F436FC04C1DB
:1045E000689436F8DDCF8C3619F4689437F8D8CF54
:1045F0008836B1F2982F9F7D95549330E0F0833642
:10460000A1F18337C1F1833509F063C02801F2E0DD
:104610004F0E511CF801C080D180692D70E036FC2E
:1046200002C06FEF7FEFC6010E945E244C016894C8
:1046300037F882010AC00C5F1F4FFFE3F98388241B
:104640008394912C6501E89437F833FE2DC0522CE9
:104650008114910471F5552009F468CFB70180E207
:1046600090E00E9474245A94F6CFF80180818983E7
:104670000E5F1F4FE4CF2801F2E04F0E511CF801EE
:10468000C080D180692D70E036FC02C06FEF7FEFF3
:10469000C6010E9469244C018201D5CFB70180E296
:1046A00090E00E9474242A942814190409F0B0F7A9
:1046B000CECFF60137FC859137FE81916F01B701AE
:1046C00090E00E94742451105A94F1E08F1A9108DE
:1046D000BFCF843619F0893609F077C0F80137FE6C
:1046E0006BC060817181828193810C5F1F4FF32DBC
:1046F000FF763F2E97FF09C0909580957095619544
:104700007F4F8F4F9F4F689437F82AE030E0A50124
:104710000E94A424C82ECA188C2C432C36FE0CC030
:10472000E89440F8C91440F434FE05C032FC03C0DC
:10473000F32DFE7E4F2E892C44FE95C0FE01EC0D1C
:10474000F11D8081803309F087C0242D297E422EFF
:10475000842D8870582E43FC95C040FE8FC09C2C41
:10476000821418F42C0C922C981844FE91C0B701B6
:1047700080E390E00E94742442FE09C088E790E044
:1047800041FE02C088E590E0B7010E947424C9147C
:1047900008F48AC0CA94D12C9FEFC91AD90ACA0C4E
:1047A000DB1CF60182916F01B70190E00E94742436
:1047B000AC14BD04B1F74FCF60817181072E000C9E
:1047C000880B990B0E5F1F4F92CFD32CE894D4F82F
:1047D0002AE030E0853739F1232D297FD22E8F361C
:1047E00001F148F48835A9F0F701868197812B966D
:1047F000E2E10C941E25803749F08837A9F7D4FEF2
:1048000002C06894D2F820E130E00DC06894D4F87A
:10481000F6CF34FE03C0822F8660D82E20E132E02E
:1048200002C028E030E0F801D7FE0FC0608171813E
:10483000828193810C5F1F4FA5010E94A424C82E82
:10484000CA183D2CE89437F867CF6081718190E0F9
:1048500080E00E5F1F4FF0CF42FC02C0839478CF00
:104860008394839475CF842D867809F471CFF6CF25
:10487000B70180E290E00E94742483948214C0F314
:10488000512C73CF522C5818821408F46ECFF8CFE5
:10489000842D867809F47BCF8BE241FE80E247FCD1
:1048A0008DE2B70190E071CFB70180E390E00E9404
:1048B00074249A946CCF8FEF9FEF99CFFC010590F1
:1048C000615070400110D8F7809590958E0F9F1F12
:1048D0000895FC016150704001900110D8F7809557
:1048E00090958E0F9F1F08950F931F93CF93DF9383
:1048F000182F092FEB018B8181FD09C01FEF0FEFEE
:10490000812F902FDF91CF911F910F91089582FFFA
:1049100014C02E813F818C819D81281739073CF47A
:10492000E881F981CF0101969983888310838E8174
:104930009F8101969F838E83E3CFE885F985812F40
:104940000995892BA1F3DACFFA01AA27283051F172
:10495000203181F1E8946F936E7F6E5F7F4F8F4FB0
:104960009F4FAF4FB1E03ED0B4E03CD0670F781F0F
:10497000891F9A1FA11D680F791F8A1F911DA11DF4
:104980006A0F711D811D911DA11D20D009F468942D
:104990003F912AE0269F11243019305D3193DEF6D5
:1049A000CF010895462F4770405D4193B3E00FD08B
:1049B000C9F7F6CF462F4F70405D4A3318F0495D76
:1049C00031FD4052419302D0A9F7EACFB4E0A69559
:1049D0009795879577956795BA95C9F7009761057B
:1049E000710508959B01AC010A2E069457954795D1
:1049F00037952795BA95C9F7620F731F841F951FC6
:104A0000A01D08952F923F924F925F926F927F92D6
:104A10008F929F92AF92BF92CF92DF92EF92FF92CE
:104A20000F931F93CF93DF93CDB7DEB7CA1BDB0B7A
:104A30000FB6F894DEBF0FBECDBF09942A8839881F
:104A400048885F846E847D848C849B84AA84B98426
:104A5000C884DF80EE80FD800C811B81AA81B98132
:104A6000CE0FD11D0FB6F894DEBF0FBECDBFED0146
:104A7000089515E0C5E4D5E004C0FE010E940E21B2
:0C4A80002196C634D107C9F7F894FFCF87
:104A8C006666663F0000E402800000000400080037
:104A9C000C000000000034100710B7127005001055
:104AAC00ED0FDE0F00000000BD0B7305B712770F82
:104ABC00C8087005620E3A0E560E4A0ECA0E7005E4
:104ACC008309611238088108830D660DEE0C8F0C7A
:104ADC00000000008C067305B7127005E80600078D
:0A4AEC00740625642E2530326400A4
:00000001FF
